:020000040800F2
:10000000801F00201D020008312D0008CF2B0008A2
:100010002D2D00080F2400087B3E00080000000082
:10002000000000000000000000000000E5320008B1
:10003000912700080000000075310008D133000846
:1000400037020008370200083702000837020008AC
:10005000370200083702000837020008370200089C
:10006000370200083702000837020008A9240008F8
:100070003702000837020008D524000837020008BC
:10008000370200083702000837020008370200086C
:10009000370200083702000837020008D927000895
:1000A000370200083702000837020008370200084C
:1000B000370200083702000837020008370200083C
:1000C000370200083702000837020008370200082C
:1000D000370200083D3A00083702000837020008DE
:1000E000370200083702000837020008370200080C
:1000F00037020008370200083702000837020008FC
:1001000037020008370200083702000837020008EB
:1001100037020008370200083702000837020008DB
:1001200037020008370200082125000837020008BE
:1001300000F002F800F062F80AA090E8000C824497
:100140008344AAF10107DA4501D100F057F8AFF274
:10015000090EBAE80F0013F0010F18BFFB1A43F0A5
:10016000010318477843000098430000103A24BF69
:1001700078C878C1FAD8520724BF30C830C144BF0C
:1001800004680C607047000000230024002500264E
:10019000103A28BF78C1FBD8520728BF30C148BFEA
:1001A0000B607047692900F04F81642900F04C8191
:1001B000752900F049816F2900F0E081782900F06D
:1001C00005820368DB0928BF41F08001632900F044
:1001D000FE83732900F00384E32900F00E840020DD
:1001E00070471FB500F0BCFC04000020002103F0A4
:1001F00097FF401C60601FBD10B510BD00F08AFC69
:100200001146FFF7EEFF03F041FE00F0ADFC03B432
:10021000FFF7F2FF03BC00F0F5FC0000094880473F
:1002200009480047FEE7FEE7FEE7FEE7FEE7FEE7D8
:10023000FEE7FEE7FEE7FEE704480549054A064BF0
:10024000704700007934000831010008801900204F
:10025000801F0020801B0020801B002053EA020C1E
:1002600000F069802DE9F04B4FF00006002B1FBF16
:10027000B3FA83F503FA05F424FA05F65E4012BFDB
:100280001643B2FA82F502FA05F4C5F120051EBF45
:1002900022FA05FC44EA0C04203556EA044C4FEAE5
:1002A000144418BF641C4FF000084FF0000990423E
:1002B00071EB030C39D3002919BFB1FA81F701FAA8
:1002C00007F6B0FA80F700FA07F6C7F120071EBF5D
:1002D00020FA07FC46EA0C062037B6FBF4FCA7EB35
:1002E0000507103F07F01F0BCBF120060CFA0BFBA4
:1002F0002CFA06F644BFB3460026202FA4BF5E4664
:100300004FF0000B5BEA060C08BF4FF0010B19EB36
:100310000B09ABFB027C48EB0608C01B06FB02CCBA
:100320000BFB03CC71EB0C01C1E70B4602464146C7
:100330004846BDE8F08B13B54FF000004FF00001C8
:10034000AFF30080BDE81C40704700000FB47CB5DF
:100350000C0009AA009001D02044401E084B7B44A9
:1003600069460190089800F008FB05461CB1002082
:10037000694600F015FB28467CBC5DF814FB0000C4
:100380004906000070B5044685690068C10601D5BC
:10039000302600E02026C00707D070BDD4E9012137
:1003A00030469047206A401C20626D1EF6D570BD15
:1003B00070B5044685690078C00707D170BDD4E9DF
:1003C000012120209047206A401C20626D1EF6D536
:1003D00070BD09684A0501D540B27047C905FCD512
:1003E00000B2704709684A0501D5C0B27047C90517
:1003F000FCD580B2704770B50C460546012A05D081
:100400002878800600D5EA69002302E0012305E090
:100410005B1C934202D2E05C0028F9D1A869E6187F
:10042000C01AA861286A184428622846FFF7AAFF64
:1004300004E0D5E9012114F8010B9047B442F8D348
:100440002846FFF7B5FF70BD2DE9F04106460024B0
:1004500010687529314616A510D0FFF7BAFF00289D
:1004600002DA404213A507E031688A0701D512A5D8
:1004700002E0490704D511A5012401E0FFF7B2FF0E
:1004800000210A2206F1240709E0B0FBF2FCB0FBD0
:10049000F2F302FB1C00303078541846491C002847
:1004A000F3D123462A463046BDE8F04100F007BAB2
:1004B000000000002D0000002B00000020000000C4
:1004C0002DE9FF5F15468A460446DFF8AC80F84404
:1004D0000027D8E900103E46CDE9001010E03AF8B8
:1004E00016106A4602A800F094FA411C07D0217841
:1004F000890603D5E269391891420DD80744761C64
:100500002078800602D5E069B84205DDAE42E6DB20
:100510003AF816000028E2D1A069C01BA06120466D
:10052000FFF730FFD8E90010CDE90010002017E0F8
:100530003AF818106A4602A800F06BFAB0F1FF3FD3
:1005400081460BD000250DF1080B05E0D4E901210F
:100550001BF8050090476D1C4D45F7D308F10100CD
:10056000B0428046E4DB206A384420622046FFF730
:100570001FFFBDE8FF9F00005E3F000070B504460E
:1005800021461068FFF72EFF002104F1240505E045
:1005900000F007023032C0086A54491C0028F7D125
:1005A0002068002307A2050707D5800600D421B1E3
:1005B000E069012304A2401EE0612046BDE87040CE
:1005C00000F07DB9000000003000000070B5044666
:1005D0000D4621461068FFF705FF2188090502D561
:1005E0000F4A7A4402E00E4A7A440E32002104F1A6
:1005F000240305E000F00F060009965D5E54491CD7
:100600000028F7D120780023000704D5702D02D0F0
:1006100009B1022311322046BDE8704000F04FB905
:10062000523E00002DE9F05F894604464FF0000A73
:10063000DFF874B1FB44C0F820A02046E168884789
:10064000002874D0252806D0D4E901219047206ADB
:10065000401C2062F1E700265F462046E16888479B
:100660002028054607DB312D05D2781910F8200C1B
:1006700008B10643F1E7B00701D526F00406C4F837
:100680001CA00027C4F818A02A2D09D0284603F082
:10069000F6FB38B304EB8708303DC8F8185019E072
:1006A00059F8041B204604EB87029161E1688847F2
:1006B000012F054618D1E069002820DA26F020062F
:1006C0001DE0D8F8180000EB800005EB4000303842
:1006D000C8F818002046E1688847054603F0CFFBBC
:1006E0000028EED1012F0AD02E2D08D12046E16836
:1006F00088477F1C0546022F46F02006C4DBA06910
:10070000002803DA404246F00106A061F00701D05C
:1007100026F010066C2D0BD0682D09D04C2D39D049
:100720006A2D35D0742D35D07A2D33D016E038E0CF
:10073000E1682F4620468847B842054609D16C2F0C
:1007400026D04FF48060E16806432046884705467E
:1007500004E06C2F1AD04FF4807006430DB3A5F15E
:100760004100192802D8203546F400664A46294639
:10077000204626604E46FFF715FD80B101280BD0BC
:10078000F61D26F0070000F1080956E74020E4E7CF
:100790008020D8E70020D6E706F104094DE7284677
:1007A00052E7206ABDE8F09F283E000010B5431CC8
:1007B00002E010F8011B71B18107FAD14FF001324C
:1007C00002C88C1A8C4314EAC211F9D0C01A0A0666
:1007D00003D0C01E10BDC01A10BD0A0401D0801E77
:1007E00010BD0902FCD0401E10BD032A40F230802B
:1007F00010F0030C00F0158011F8013BBCF1020F62
:10080000624498BF11F801CB00F8013B38BF11F8E2
:10081000013BA2F1040298BF00F801CB38BF00F8F9
:10082000013B11F0030300F01481083AC0F0088086
:1008300051F8043B083A51F804CBA0E80810F5E75A
:10084000121D5CBF51F8043B40F8043BAFF300803D
:10085000D20724BF11F8013B11F801CB48BF11F8B2
:10086000012B24BF00F8013B00F801CB48BF00F882
:10087000012B70474FF000020429C0F0128010F0E5
:10088000030C00F01A81CCF1040CBCF1020F18BF6C
:1008900000F8012BA8BF20F8022BA1EB0C0100F0FF
:1008A0000CB95FEAC17C24BF00F8012B00F8012BD2
:1008B00048BF00F8012B70477047704770472DE91B
:1008C000F0470D4699469246044600F12408016817
:1008D000880604D5E06921F01001216000E00120C4
:1008E000A84201DD471B00E00027A1697A1902EB4D
:1008F0000900081AA0612078C00602D42046FFF73C
:1009000041FD002608E0D4E901211AF806009047CD
:10091000206A401C761C20624E45F4DB2078C0061D
:100920000AD52046FFF72EFD06E0D4E9012130204C
:100930009047206A401C2062381EA7F10107F4DCB2
:1009400007E0D4E9012118F805009047206A401C0F
:100950002062281EA5F10105F3DC2046FFF728FDE3
:100960002078000602D50220BDE8F0870120FBE7D1
:1009700001694A1C02610878704700B58FB0CDE963
:1009800001310021059105497944CDE90310114653
:100990006846FFF747FE0FB000BD0000E5FFFFFF10
:1009A0000A6802F8010B0A607047D1E900239A42F5
:1009B00002D2531C0B601070704710B5436913B11D
:1009C000AFF3008001E0FFF716FD012010BD1278A3
:1009D00000F124010A7000224A700122EDE711683B
:1009E0004FF0FF32E9E710B5436913B1AFF3008070
:1009F00001E0FFF765FD012010BD128800F1240120
:100A000082840022C2840122EDE711684FF0FF3298
:100A1000E9E770B516460C46054600F073F8036822
:100A200093F80101012806D0FF2C0FD8185D68B19A
:100A300001202C7070BDD3F807013246214603F225
:100A4000071303442846BDE8704018474FF0FF30B5
:100A500070BD10B5203AC0F00B80B1E81850203AB4
:100A6000A0E81850B1E81850A0E81850BFF4F5AF4E
:100A70005FEA027C24BFB1E81850A0E8185044BFD8
:100A800018C918C0BDE810405FEA827C24BF51F845
:100A9000043B40F8043B08BF7047D20728BF31F839
:100AA000023B48BF11F8012B28BF20F8023B48BF8A
:100AB00000F8012B70474FF0000200B51346944632
:100AC0009646203922BFA0E80C50A0E80C50B1F1A6
:100AD0002001BFF4F7AF090728BFA0E80C5048BFBA
:100AE0000CC05DF804EB890028BF40F8042B08BF58
:100AF000704748BF20F8022B11F0804F18BF00F854
:100B0000012B704710B500F02BF8001D10BD00BF81
:100B100011360000754600F031F8AE460500694612
:100B2000534620F00700854618B020B5FFF784FB38
:100B3000BDE820404FF000064FF000074FF00008DE
:100B40004FF0000B21F00701AC46ACE8C009ACE85F
:100B5000C009ACE8C009ACE8C0098D467047000088
:100B6000004870474019002010B50446AFF30080DC
:100B70002046BDE81040FFF74ABB00000048704720
:100B8000201900204FF0013C50F8042B51F8043B91
:100B90009A4221D1A2EB0C03934313EACC1317D151
:100BA00050F8042B51F8043B9A4215D1A2EB0C03E8
:100BB000934313EACC130BD150F8042B51F8043BA8
:100BC0009A4209D1A2EB0C03934313EACC13DBD076
:100BD0004FF00000704700BFD01A01BAB1FA81F19E
:100BE00001F0180122FA01F0CB40C1F12001DBB283
:100BF000C0B2C01A2CFA01F3D11A914311EAC31101
:100C0000E6D1704701491820ABBEFEE7260002007E
:100C10007047CA430260704721B1826842F0010206
:100C2000826003E0826822F001028260704721B195
:100C3000826842F48072826003E0826822F48072EB
:100C40008260704710B504461248844208D10121E1
:100C5000401502F0CDFA0021601502F0C9FA17E044
:100C60000D48844208D10121001502F0C1FA00218B
:100C7000201502F0BDFA0BE00848844208D101219A
:100C8000C80302F0B5FA00214FF4004002F0B0FAB8
:100C900010BD00000024014000280140003C01403C
:100CA00021B1826842F48012826003E0826822F4FB
:100CB000801282607047014600208A6802F00402B8
:100CC0000AB1012000E0002070470146C86C80B2E4
:100CD00070470246002013680B400BB1012000E072
:100CE00000207047014600208A6802F008020AB11D
:100CF000012000E00020704730B5024600200023AC
:100D000050680F4C20400D790C6844EA05242043BC
:100D1000506090680B4C2040D1E902542C434D792F
:100D200044EA450420439060D06A20F470000C7CB3
:100D3000641EE4B2234340EA0350D06230BD000099
:100D4000FFFEF0FFFDF7F1FFF0B504460D46002071
:100D50000021092D11DDE068A5F10A0606EB460722
:100D6000072606FA07F18843A5F10A0606EB4606B0
:100D700003FA06F10843E0600CE0206905EB450743
:100D8000072606FA07F1884305EB450603FA06F144
:100D900008432061072A0FDA606B561E06EB8607B0
:100DA0001F2606FA07F18843561E06EB860605FA4B
:100DB00006F10843606322E00D2A0FDA206BD61F8C
:100DC00006EB86071F2606FA07F18843D61F06EBB7
:100DD000860605FA06F10843206310E0E06AA2F1F6
:100DE0000D0606EB86071F2606FA07F18843A2F1D7
:100DF0000D0606EB860605FA06F10843E062F0BD33
:100E0000816841F008018160704721B1826842F435
:100E1000A002826003E0826822F4A0028260704730
:100E2000816841F004018160704700210160017117
:100E300041718160C16001210174704733E03A491A
:100E4000097839B939490978491C01F00301374A51
:100E5000117026E034490978012907D133494978CE
:100E6000491C01F00301314A51701AE02E490978FA
:100E7000022909D12D4989780B2905D22B49897876
:100E8000491C2A4A91700CE027490978032908D1A6
:100E90002649C9780C2904D22449C978491C234A17
:100EA000D170411E08B20028C9DC3AE01E49097819
:100EB00059B91E49097809B9032103E01B4909788A
:100EC000491EC9B2194A117029E017490978012948
:100ED0000BD11649497809B9032103E01349497830
:100EE000491EC9B2114A517019E00F490978022907
:100EF00009D10E498978012905D90C498978491EFB
:100F00000A4A91700BE008490978032907D107497B
:100F1000C97821B10549C978491E044AD170411CDC
:100F200008B20028C2DB70477E0000207900002054
:100F300010B50446012C16D12348007848B923483F
:100F400000F0CCFC012020490870002020490870E6
:100F500005E01F48007810B900201B4908700120E7
:100F60001C4908702FE0022C18D11748007801287E
:100F700014D11748007850B1144800F0FFFB00204E
:100F800013490870144908701449088002E00120D0
:100F90000F49087001200F49087014E0022C08D195
:100FA0000948007828B900F0CFFA012009490870F3
:100FB00009E0032C07D10448007820B900F0C3FAF7
:100FC00001200449087010BD78000020790000203D
:100FD0007F0000208000002081000020940000207D
:100FE00008B50AE09DF80000442803D09DF80000F1
:100FF000642802D1012004490870684602F0E0FD2F
:101000000028EFD108BD00009600002010B501F0C7
:10101000E1FD00F08AFA10B911A002F033FE01F0F0
:101020007BFC00F0B1FC144800F058FC0020134990
:10103000087013490870134908700120124908709C
:1010400000201249087012490860124908601249CC
:10105000086012490860124908801249087010BDE2
:10106000446973706C617920696E69742066616986
:101070006C65642E0D0A00007900002078000020C5
:101080007E0000207F0000208000002081000020E2
:1010900084000020880000208C00002090000020A8
:1010A000940000209600002030B5B9B00446208A94
:1010B000E189A289638ACDE90932CDE90B10A28AC0
:1010C000607FE38A2168CDE90530CDE90721A07F63
:1010D000228B618BA368CDE90131CDE903206068E3
:1010E00008A3094AB02100900DA8FFF72FF90DA819
:1010F000FFF75CFB85B229460DA802F095FD39B0DB
:1011000030BD000044445300744400082DE9F0470A
:10111000CCB03F48007810B102F0C2FD10B14CB025
:10112000BDE8F0873B4800F06DFB40B90C213A4820
:1011300002F07AFD10B1002035490870EFE74AA8A7
:1011400000F0CCFB42A800F0D3FB9DF92C0100F588
:10115000DC701FFA80F8449800EB5800B0FBF8F000
:1011600085B22C48B0F80003A84202DA2948B0F84A
:1011700000532848B0F80003401B1FFA80F9CDE95E
:10118000008526A24FF4807102A8449BFFF7DEF889
:101190000446002627E009EB060CDFF878A03AF8B1
:1011A0001C3006F1010CAC4502D20FF28C0C01E0B0
:1011B0000FF27C0C62461FFA84FCCCF580710DF1B5
:1011C000080C0CEB0400FFF7C1F80746002F05DB05
:1011D000B8B2A1B2C1F58071884201D3002409E000
:1011E0003C44701C86B2AE4204DA002C02DDA0B290
:1011F000FF28D0D900BF002C07DDA1B202A802F061
:1012000013FD10B100200249087000BF87E70000FD
:101210009600002018160020214400084144435F36
:1012200058312C46533D25752C463D25752C4E3D99
:1012300025750D0A0000000025752C00F0B58DB055
:1012400066480068401C65490860FFF7C9FE01F068
:1012500007FD074601F03AFB04463846FFF768FEF3
:10126000002C3FD05E480078B0B9204600F066F907
:1012700088B901A800F032FB9DF90800204405B2AE
:1012800015F11E0F01DA6FF01D051E2D00DD1E2564
:1012900068B200F01BFE22E05248007818B12046E8
:1012A000FFF7CCFD1BE008E04F480078401C00F041
:1012B00003004D490870601E04B2002CF4DC0CE001
:1012C0004948007808B9032003E047480078401EE9
:1012D000C0B245490870601C04B2002CF0DB01204C
:1012E0004249087005A800F003FB414905980968C8
:1012F000884206D03E490598086000203D49088094
:101300000AE03C4800884FF6FF71884204D2394811
:101310000088401C37490880FFF7F8FE2F48006816
:1013200035490968401AB0F57A7F07D305A8FFF759
:10133000BBFE18B1294800682F4908602B48007887
:1013400050B927480078002845D1244800682B4927
:101350000968401A1E283ED321480078012807D189
:101360002048027820480178254800F0EFF82BE06B
:101370009DF8300030B11F480088B0F5FA7F01D2E7
:10138000012000E00020054665B100F0DAF810B950
:101390001C48007830B91C4800F034FA10B1012024
:1013A0001849087025B11748007808B1012000E0FD
:1013B0000020064603A800F091FA3346124A05A918
:1013C00003A800F06FF900BF002008490870034827
:1013D00000680A4908600DB0F0BD000084000020DC
:1013E000780000207F0000207E0000208000002088
:1013F00090000020940000208C0000208800002035
:1014000079000020810000201816002002460F2AD3
:1014100001DA102901D300207047034800EB421085
:1014200030F81100F8E700004C4100082DE9FC47B6
:1014300007460C46154604EB4400C6B20A20B6FB2C
:10144000F0F100FB1168B6FBF0F90DB106A000E069
:1014500006A04B4606A20621CDE900803846FEF7DD
:1014600075FFBDE8FC8700002A00000000000000B6
:1014700025752E257556257300000000F8B5054624
:101480000C46002C02DA6042C0B200E0E0B2064630
:101490000096002C01DA2D2000E02B20034603A249
:1014A00009212846FEF752FFF8BD000044463A25C0
:1014B0006325303275485A00F8B506460C46154685
:1014C0000DB106A000E006A0C4EB041305A209219B
:1014D00000903046FEF73AFFF8BD00002A000000F9
:1014E000000000002575444547257300B0B1012870
:1014F00004D0022807D003280FD109E00A230B707B
:101500000B2313700FE00C230B700D2313700AE0F4
:101510000E230B700223137005E000BF08230B702D
:101520000923137000BF00BF704710B502F04FFDD4
:1015300001F042FC01F0F4FC012010BD0146002046
:1015400070470120704770477047000070B588B041
:1015500004460D4616461EB1022D01D1012000E0C1
:1015600000200246A17804A8FFF760FF1EB1032DFA
:1015700001D1012000E000200246E17801A8FFF738
:101580009BFF01F019FC012300221146222000F0EC
:1015900067FE3DA20421422001F092FC01230022BB
:1015A0001146542000F05CFE38A20421742001F0A2
:1015B00087FC032302221021002000F051FE0523A6
:1015C00004222021002000F04BFE072306223021B8
:1015D000002000F045FE207806AA07A9FFF786FF45
:1015E0009DF818309DF81C201021222000F038FEB4
:1015F0002DB926B126A21421422001F061FC10234E
:1016000022222946002000F03FFE607806AA07A9A2
:10161000FFF76CFF9DF818309DF81C201021542016
:1016200000F01EFE012D05D126B119A2142174204F
:1016300001F046FC102354222946012000F024FE2C
:1016400004AA2421222001F03BFC20232222294647
:10165000022000F019FE0FA22421542001F030FCDA
:1016600001AA3421222001F02BFC3023222229461A
:10167000032000F009FE09A23421542001F020FCCF
:1016800001F04EFC08B070BD3100000032000000D7
:101690002A000000332E3356000000003044454736
:1016A00000000000F0B587B006460F4615461C4600
:1016B00096F9041004A8FFF7E1FE01F07DFB04AAEF
:1016C0000021084601F0FCFB24B926A200214A2093
:1016D00001F0F6FB26A01A210A22CDE90021029092
:1016E00014B1B5F8002300E0002211460CB12A46DF
:1016F00000E00022104640F6FF73002200F010FECA
:101700001CA02D211D22CDE90021029014B1B5F8B5
:10171000002300E00022114614B105F5807200E0BC
:101720000022104640F6FF73002200F0F9FD12A0DF
:101730003F213022CDE90021029014B1B5F80023F9
:1017400000E00022114614B105F5007200E000220D
:10175000104641F6FE73002200F0E2FD01F0E0FBCE
:1017600007B0F0BD574149542041444300000000F8
:1017700058310000583200005800000010B50446EF
:1017800004B910BD00F006FC0A4821680160217907
:10179000017100F011F800F053FC00F05DFB002037
:1017A00000F070F8802000F06DF800F09BFB00BFA7
:1017B000E7E70000000000200178032901DD002197
:1017C00001704178032901DD00214170817809B958
:1017D0000121817081780B2901D90B218170C17899
:1017E0000C2901D90C21C17090F9041011F11E0FC0
:1017F00001DAE221017190F904101E2901DD1E2198
:101800000171704770B5054615B11B48007808B9DD
:10181000002070BD8021194800F08AFC0646802E09
:1018200001D00020F5E700241BE004EB440013493D
:1018300031F8100025F8140004EB440001EB4000DF
:10184000418805F5807020F8141004EB44000B4922
:1018500001EB4000818805F5007020F81410601C31
:1018600084B2B442E1DBA5F8006305480068C5F81E
:1018700004030120CDE7000012000020980700209B
:101880000800002070B5054610488078C0EB003095
:101890000B21B0FBF1F086B2002414E00C4A126870
:1018A000110E0A4A1078324600F09EFB2919094AA7
:1018B00022F81100064800680749096808440449ED
:1018C0000860601C84B2802CE8D370BD000000204A
:1018D00018000020980000201C00002020B10349BF
:1018E0000A68026009790171704700000000002059
:1018F00010B5044604B910BD1848006820601848A7
:101900000068606017480068A06017480088A081E0
:1019100016480088E08116480088208200F05CFCB0
:10192000608214480088A082134800F0E1FEE08243
:101930004FF08040808D20831048808D6083104858
:10194000007820770F48007860774FF08040008A59
:10195000C0F38000A07700BFCDE7000008000020A2
:10196000280000202C0000200C0000200E00002089
:101970001000002014000020080002400010004069
:10198000120000201300002008B501214FF401705F
:1019900001F01EFC0121480701F00AFC3120ADF8DE
:1019A000000000208DF8030003208DF80200694636
:1019B000124801F02FF80220ADF8000004208DF845
:1019C000030069460D4801F025F800F021FB0C48A2
:1019D000FFF7F2FE00F03AF900F03EFA0020FFF7C0
:1019E00051FF8020FFF74EFF00F0AEF800F088F8BE
:1019F00000F008F800F076FA08BD00000008014089
:101A00000000002010B586B04FF4004001F0B4FB98
:101A10003748FFF717F901A8FFF707FA00200190F0
:101A20008DF808008DF809004FF460200390002025
:101A3000049001208DF8140001A92D48FFF75CF9EE
:101A40000523012200212A48FFF77EF901212848B9
:101A5000FFF7E2F82648FFF7D3F900BF2448FFF765
:101A600041F90028FAD12248FFF7DAF900BF2048EF
:101A7000FFF721F90028FAD102211D48FFF7C9F824
:101A800001211B48FFF7C1F91A4C00E0641E022136
:101A90001748FFF71EF908B9002CF7D144B11448D4
:101AA000FFF713F91449088001201449087004E075
:101AB0000020114908801149087000210C48FFF7E7
:101AC000EFF84FF4C020039001A90948FFF714F97B
:101AD0000523012200210648FFF736F901210448B9
:101AE000FFF7A5F801210248FFF7DAF806B010BDAC
:101AF00000240140A08601001400002013000020F3
:101B00001FB5684600F0CAFC042000900020019038
:101B10000390694600F0A8FC24200090694610203C
:101B200000F0A2FC0121002000F088FC012110201F
:101B300000F084FC0121002000F06CFC0121102049
:101B400000F068FC1FBD000000B58DB0012103202E
:101B500001F01EFB02A800F00EFE102004900020F1
:101B60000690802007904000089080000990202077
:101B70000A9000020B9000200C902D4800F012FDFE
:101B80002C4802902C4803904FF48070059002A9D5
:101B9000274800F0D0FD01220621254800F0C2FDB3
:101BA0002348143000F0FEFC22480C3002902348F9
:101BB00003904FF48070059002A91D48143000F086
:101BC000BAFD1F4800F0EEFC1E4802901E4803902C
:101BD000002004904FF4807005904FF440500B901B
:101BE00002A9174800F0A7FD01220621144800F0C1
:101BF00099FD0B208DF8040000208DF805008DF86C
:101C0000060001208DF8070001A801F093F83A20A2
:101C10008DF8040001208DF8050000208DF80600E5
:101C200001208DF8070001A801F084F80DB000BD77
:101C30003004024008740040980000209802002000
:101C4000080002404C240140980400202DE9F04196
:101C500088B03748006800F58050440B601E86B29B
:101C600033480068B0FBF4F032490860304800683F
:101C70004DF6BA3108444900B0FBF1F52E48056035
:101C800000F0DEF900210A464FF4DC73A4FB020CDD
:101C900001FB01C104FB03132549096849084718E2
:101CA00043F100012248002302683846FEF7D6FAC5
:101CB000224908600121112001F07AFA05A801F0FB
:101CC000B3FE0020ADF81400ADF81600ADF81A0010
:101CD000ADF8186005A94FF0804001F053FE2021B7
:101CE000480601F018FE01A801F00BFE6020ADF8D7
:101CF00004000120ADF80600701C4008ADF80A0091
:101D000001A94FF0804001F09DFD0821C80601F0B7
:101D1000EBFD681E80B2ADF8180005A9084801F077
:101D200031FE2021064801F0F6FD08B0BDE8F08143
:101D3000280000202C00002030000020240000207B
:101D4000001000402DE9FC41054640F6FF774FF0BA
:101D50000008012600243BE02819344931F810001E
:101D6000ADF80000324A1268110E324A507840F63F
:101D7000FF7200F039F9ADF80200BDF80000BDF8BF
:101D80000210084480B2ADF80400294800682A49CE
:101D90000968084426490860BDF80000B84201DA25
:101DA000BDF80070BDF80000404501DDBDF80080C1
:101DB000BDF80400B04201DDBDF80460BDF80400C8
:101DC0001E4921F81400684600F00CFA601C84B229
:101DD000802CC1D31A480088864201DD184806804D
:101DE000002412E0154830F81400C0EB003014490C
:101DF000098800EB510012490988B0FBF1F029195C
:101E0000104A22F81100601C84B2802CEAD30E48DC
:101E100007800E48A0F800800D480068401C0C495F
:101E2000086001200B490870BDE8FC81980400207F
:101E30002000002000000020240000209806002040
:101E400010000020980200200C0000200E0000204E
:101E5000080000201200002070B500F0EFF94FF4E8
:101E600000711148FEF706FD1048C0780F21A0FB55
:101E7000015100244FF4B472234620462946FEF750
:101E8000EDF90B49086000200A4908600A4908601A
:101E90000A4908800A49088001200A490880002070
:101EA0000949087070BD0000980200200000002061
:101EB0001800002020000020080000200C00002056
:101EC0000E000020100000201200002010B5044673
:101ED00003480471FFF770FC00F0B2F810BD000079
:101EE0000000002010B5012000F034FB244800F071
:101EF00031FB4FF0102000F02DFB4FF48071214892
:101F000000F037FC4FF480711F4800F032FC4FF4B2
:101F100080711D48143000F02CFC01211B48FEF795
:101F200086FE01211948FEF7BBFE0121154800F08D
:101F30002DFB0121144800F029FB01211248143027
:101F400000F024FB00214FF0804001F0EDFC002167
:101F50000F4801F0E9FC0521880701F0DDFB0121B4
:101F6000880701F009FC0521880701F0D5FB012154
:101F7000880701F0D4FB0121054801F0D0FB10BD1A
:101F8000000100100800024030040240002401401B
:101F90000010004010B500214FF0804001F0BFFB61
:101FA00000210D4801F0BBFB00210C4800F0EEFAC7
:101FB00000210B4800F0EAFA00210948143000F033
:101FC000E5FA012000F0C6FA064800F0C3FA4FF027
:101FD000102000F0BFFA10BD0010004008000240C1
:101FE00030040240000100102DE9F04105460E4684
:101FF00014463146284600F04BF8074607FB04F02C
:10200000FE2190FBF1F000F5006080B2BDE8F081A8
:1020100000B585B001F0DEF9684601F0F9F807492E
:1020200002980860DDE90110884204D00348006886
:1020300040000249086005B000BD000028000020F3
:102040002DE9F0410E4890F9040000F5DC74002100
:102050000C480068A1FB002704FB007001FB010095
:10206000094909684908551840F10001064800234C
:1020700002682846FEF7F2F804490860BDE8F081DE
:102080000000002030000020280000201C0000205C
:1020900030B504467CB3012C04D0022C1AD0032C9A
:1020A00028D120E0802908D2C1EBC11040007F2553
:1020B000B0FBF5F07F3800B230BDA1F1800080B2F6
:1020C000C0EBC01040007F25B0FBF5F0C0F17F00F1
:1020D00000B2F1E7C1EBC1104000FF25B0FBF5F005
:1020E0007F3800B2E8E7802901D27F20E4E76FF073
:1020F0007E00E1E700BF8B1101F03F0213B90B48EE
:10210000805CD9E7012B04D1C2F14000074D285C67
:10211000D2E7022B03D10548805C4042CCE7C2F1F4
:102120004000024D285C4042C6E700002C430008F6
:102130002DE9F04302460B4602B113B90020BDE879
:10214000F08300243CE0DFF880C0DCF80060DFF8BA
:102150007CC0BCF80070BB4201DA9C4600E0BC4683
:102160006046DFF86CC0BCF800C0ACEB000C0CF0B3
:10217000FF05002119E001EB410C02EB4C0C05EBD3
:10218000010808F0FF0808EB4808DFF8489009EB61
:102190004808D8F80090CCF80090B8F80480ACF863
:1021A000048001F1010C1FFA8CF18142E3DBDFF8BE
:1021B00018C0DCF800C0664500D1C0E7601CC4B29E
:1021C000032CC0D30020BAE73800002036000020DE
:1021D00034000020980A0020014800887047000061
:1021E0003600002000B970471049098801EB410111
:1021F0000F4A02EB410102680A6082888A800B491B
:102200000988491CC9B2094A11800A490988FF296D
:1022100004D808490988491C064A118006490968FA
:10222000491C054A116000BFDDE7000034000020B2
:10223000980A0020360000203800002000200549C0
:1022400008800549088005480068401C034908606B
:1022500070470000340000203600002038000020C5
:102260002DE9F04104460E4617461D463A463146D2
:10227000204600F0ABFD04F11001C8B22A463146F9
:1022800000F0A4FDBDE8F0812DE9F05F82468B46A9
:1022900091461C46DA4541D1A9F1020609F12B0706
:1022A000254604F10F082B46F01C02B229463046A1
:1022B00000F0B5FDE81C03B232462946304600F076
:1022C000AEFDF91E08B22B463A46294600F0A7FD9E
:1022D000E81C03B23A462946384600F0A0FD4346C2
:1022E000F01C02B24146304600F099FDA8F103000F
:1022F00001B243463246304600F091FDF91E08B265
:1023000043463A46414600F08AFDA8F1030001B277
:1023100043463A46384600F082FD00BFBDE8F09FD4
:102320002DE9F04F85B005468A4616461C46DDE984
:102330000E970E20049009F10400C1B20020109AFB
:1023400000F0BEFD09EB0700400803B209EB0700EF
:10235000400801B27F220D2000F061FD2DB1BAF1DD
:10236000000F02D0564500DA14B905B0BDE8F08F71
:10237000AAEB060080B2019035F81600A04201DDFC
:10238000204601E035F816000290A7EB09010298FB
:10239000414301EB5400B0FBF4F0381A00B2039053
:1023A0004FF001082EE00198401E00FB08F071215B
:1023B000B0FBF1F0304480B20090009835F8100086
:1023C000A04201DD204602E0009835F8100002909E
:1023D000A7EB09000299484300EB5400B0FBF4F06E
:1023E000381A0FFA80FB08F10E025B46DDE9031094
:1023F00000F015FD08F10E000490CDF80CB00D387A
:1024000000F0FF08B8F1720FCDD300BFADE700BFF9
:10241000FEE7000039B1084A1268012383401A43DD
:10242000054B1A6006E0044A1268012383409A4370
:10243000014B1A60704700000074004041B1094A26
:1024400012684FF4805383401A43064B1A6007E02A
:10245000044A12684FF4805383409A43014B1A6038
:10246000704700000074004030B5002200230A4C81
:10247000226840F6FE748440A243D1E900452C4313
:102480008D682C43CD6844EA050303FA00F4224327
:10249000014C226030BD000000740040002101604A
:1024A00041608160C160704710B5042000F024F9DC
:1024B00028B1042000F05CF80020FFF743FC022064
:1024C00000F01AF928B1022000F052F88020FFF73E
:1024D00039FC10BD10B54FF4005000F00DF950B1AB
:1024E0004FF4005000F044F800210B4800F04EF883
:1024F00000200A4908704FF4004000F0FDF850B188
:102500004FF4004000F034F80021034800F03EF89A
:1025100000200249087010BD440002404C00002019
:1025200010B50A4800F0E8F828B1084800F020F893
:102530000020FFF7A7F9064800F0DEF828B10448AC
:1025400000F016F88020FFF79DF910BD0004001080
:102550000002001000F0805111B10349086001E051
:102560000249486070470000040402400000024035
:1025700000F0805111B10349086001E00249486050
:1025800070470000040402400000024021B10268CC
:1025900042F00102026004E002684FF6FE731A4046
:1025A0000260704701684FF6FE7211400160002121
:1025B000016041608160C1604B49884208D14A494D
:1025C0000839496841F00F01474A083A51608AE0EA
:1025D00045491431884208D143490839496841F0D6
:1025E000F001414A083A51607DE03F492831884274
:1025F00008D13D490839496841F470613A4A083ABE
:10260000516070E038493C31884208D13649083978
:10261000496841F47041344A083A516063E03249F4
:102620005031884208D130490839496841F4702155
:102630002D4A083A516056E02B496431884208D14E
:1026400029490839496841F47001274A083A51601C
:1026500049E025497831884208D123490839496839
:1026600041F07061204A083A51603CE01F498842BD
:1026700006D1011F096841F00F01021F116032E00D
:102680001A491431884208D11849091F096841F0D4
:10269000F001164A121F116025E0144928318842C2
:1026A00008D11249091F096841F470610F4A121FCD
:1026B000116018E00D493C31884208D10B49091FCF
:1026C000096841F47041094A121F11600BE0074983
:1026D0005031884207D10549091F096841F470212A
:1026E000024A121F116070470800024008040240AD
:1026F0000146486880B2704701460020002201F080
:10270000805313B1054B1A6801E0054B1A6802EAC1
:1027100001030BB1012000E00020704700040240DB
:10272000000002401AB103680B43036002E0036833
:102730008B430360704710B50022026847F6F073C0
:102740009A430C6A8B6823430C6923434C692343E7
:102750008C692343CC6923434C6A23438C6A23430B
:102760001A430260CB6843600B6883604B68C360A8
:1027700010BD416070470021016041608160C1600F
:10278000016141618161C1610162416281627047A1
:10279000704700B5034603E04FF47A7000F005F887
:1027A000181EA3F10103F7D100BD00EBC001C90061
:1027B0004FF0E0225161002191610521116100BFBC
:1027C0004FF0E021096901F480310029F8D004219B
:1027D0004FF0E0221161704710B5202000F018F88A
:1027E00058B10648007828B101200549087000203A
:1027F00002490870202000F005F810BD41000020BB
:1028000040000020014908607047000014040140A6
:10281000014600200022074B1B6803EA0102054B1A
:1028200014331B680B4013B10AB1012000E00020F3
:102830007047000000040140002123498279002AEA
:102840003AD00A46126803689A430B461A600A1D7A
:10285000126803689A430B1D1A60027911440A68D2
:1028600003681A430A60184A0832126803689A43D8
:10287000154B08331A601A1D126803689A43124BED
:102880000C331A604279102A0ED11A1F126803689D
:102890001A430D4B08331A601A1D126803681A4355
:1028A000094B0C331A600DE00749427911440A685C
:1028B00003681A430A6005E0027911440A68036854
:1028C0009A430A60704700000004014070B50F4849
:1028D00000F054FF05B20E480088281A06B20C48D2
:1028E00005800C480088304400B20A490880B1F9DC
:1028F0000000C11700EB91718C1006480088A0EB16
:10290000840000B203490880204670BD00040040E6
:102910003C0000203E00002000B587B001210420CB
:1029200000F056FC0121022000F042FCC020ADF86E
:10293000180048208DF81B0003208DF81A0006A906
:10294000204800F067F803A801F06EF84FF6FF701A
:10295000ADF810000020ADF80C00ADF80E0003A992
:10296000194801F00FF8684600F062FF0A20ADF840
:1029700008000020ADF800006946134800F002FF8F
:102980000420ADF8000069460F4800F0FBFE00236C
:102990001A4603210C4800F0CEFE4FF400410A48CD
:1029A00000F0C2FF084800F0E9FE00B207490880C5
:1029B0000020074908800121034800F0B0FE07B05D
:1029C00000BD000000080140000400403C00002061
:1029D0003E00002030B500228B071C0F0F2303FAA6
:1029E00004F20B4B8C1053F824309343084C8D1099
:1029F00044F8253023468C1053F824308C07240FDC
:102A000000FA04F42343024C8D1044F8253030BD05
:102A1000080001402DE9F041024600250026002073
:102A200000230024002791F803C00CF00F0591F853
:102A300003C00CF0100CBCF1000F03D091F802C0E1
:102A40004CEA050591F800C0BCF1000F31D01468C4
:102A500000202BE04FF0010C0CFA00F3B1F800C09D
:102A60000CEA03069E4220D183004FF00F0C0CFAB3
:102A700003F7BC4305FA03FC4CEA040491F803C0D5
:102A8000BCF1280F06D14FF0010C0CFA00FCC2F883
:102A900014C00AE091F803C0BCF1480F05D14FF013
:102AA000010C0CFA00FCC2F810C0401C0828D1D35D
:102AB0001460B1F800C0BCF1FF0F34DD5468002091
:102AC0002EE000F1080C4FF0010808FA0CF3B1F801
:102AD00000C00CEA03069E4221D183004FF00F0C88
:102AE0000CFA03F7BC4305FA03FC4CEA040491F822
:102AF00003C0BCF1280F05D100F1080C08FA0CF84E
:102B0000C2F8148091F803C0BCF1480F07D100F15E
:102B1000080C4FF0010808FA0CF8C2F81080401CAD
:102B20000828CED35460BDE8F0810000F0B50A4615
:102B3000002300240021002500F00046B6F1004FDC
:102B400002D11D4EF16901E01B4E7168C0F30345CF
:102B500083B200F44016B6F5401F08D121F0706131
:102B6000154E766826F07066134F7E6012E000F412
:102B70008016B6F5801F06D1032606FA05F4A14398
:102B800041F0706106E0460D360103FA06F6B143E6
:102B900041F0706122B1460D360103FA06F6314369
:102BA00000F00046B6F1004F02D1034EF16101E0A2
:102BB000014E7160F0BD000000000140024600209F
:102BC00093680B400BB1012000E00020704700BF6C
:102BD000FEE700001FB50121152000F0F9FA0121E0
:102BE0001C48FFF7A3FF48208DF80F0003208DF845
:102BF0000E003020ADF80C0003A91748FFF70AFFBC
:102C00004FF40040ADF80C0003A91448FFF702FF91
:102C100005210220FFF7DEFE2020019000208DF824
:102C200008000C208DF8090001208DF80A0001A889
:102C3000FFF702FE17208DF8000002208DF801003A
:102C400000208DF8020001208DF80300684600F096
:102C500071F81FBD00023000001001400008014063
:102C600070B54FF400412948FFF7A8FF012800D1B3
:102C700000E00020044610212548FFF79FFF0128AF
:102C800000D100E00020054620212148FFF796FFF3
:102C9000012801D11F4908701F48007820B1002089
:102CA0001D490870012070BD1C48007844EA4000AE
:102CB0001A4908700846007838B91948007820B9D0
:102CC0000120174908700220EDE714480078FF281A
:102CD00002D10020124908701248007845EA4000ED
:102CE000104908700846007838B90F48007820B9B4
:102CF00001200D4908700320D5E70A480078FF2815
:102D000002D10020084908700020CCE700080140EB
:102D1000001001404100002040000020420000203F
:102D200043000020440000204500002000BFFEE7D3
:102D30007047000070B5002100230F22C47804B34F
:102D4000154C246804F4E064C4F5E064210AC1F180
:102D50000403CA40447804FA03F184781440214300
:102D600009010E4C0678A155047804F01F050124D2
:102D7000AC4005786D11AD0005F1E025C5F80041C6
:102D800009E0047804F01F050124AC40044D0678E6
:102D9000761145F8264070BD0CED00E000E400E03F
:102DA00080E100E002490143024A116070470000DF
:102DB0000000FA050CED00E010B54FF48061024808
:102DC000FDF758FD10BD0000981000202DE9F041DE
:102DD0000746884616460F2E01DBBDE8F081002429
:102DE00019E0002513E021463046FEF70FFBC5F140
:102DF0000F0201219140084038B108EB0402D1B222
:102E00007A19D0B2012200F077F9681CC5B2102DF2
:102E1000E9D3601CC4B2102CE3D300BFDDE72DE979
:102E2000F84F04460D4616461F46A64201DD301BEC
:102E300000E0A01B0FFA80F9B44201DA012001E0A2
:102E40004FF0FF308346AF4201DDE81B00E0781B06
:102E50000FFA80FABD4201DA012001E04FF0FF30A5
:102E6000009009EB0A000FFA80F825E0002C0ADB3D
:102E7000802C08DA002D06DB402D04DAE9B2E0B23E
:102E8000012200F039F9B44202D1BD4200D114E070
:102E9000BAEB480F06DC08EB0A000FFA80F804EBE7
:102EA0000B0004B2B9EB480F06DB08EB09000FFA80
:102EB00080F80098284405B2D8E700BFBDE8F88F35
:102EC0002DE9FC410546884614460CB9BDE8FC8155
:102ED00020E02078694600F037F8002615E000274A
:102EE0000FE01DF806100120B840014039B108EB91
:102EF0000702D1B2AA19D0B2012200F0FDF8781C65
:102F0000C7B2072FEDDB701CC6B2052EE7DBA81D8C
:102F1000C5B2641C207808B17A2DDADD00BFD5E790
:102F200010B500240AE02146002001F0D7F8054939
:102F300001EBC41000F008F9601CC4B2082CF2DBED
:102F400010BD00009810002010B5002203E00023FF
:102F50008B54531CDAB2052AF9DB302810DB3928F0
:102F60000EDC002209E0A0F1300303EB8303244CC4
:102F700023449B5C8B54531CDAB2052AF3DB3EE0FE
:102F8000412810DB5A280EDC002209E0A0F14103A1
:102F900003EB83031B4C23449B5C8B54531CDAB21E
:102FA000052AF3DB2BE03A2802D136238B7026E08A
:102FB0002E2802D140238B7021E02D2804D1082334
:102FC0004B708B70CB701AE02B2805D11C238B70B3
:102FD00008234B70CB7012E02A280AD114230B70FF
:102FE00008234B703E238B700823CB7014230B7186
:102FF00005E03D2803D114234B708B70CB7010BDBE
:103000006D4300089F4300080A2000E000BF011E36
:10301000A0F10102D0B2F9D17047000010B54FF411
:10302000004009490860401108490861FFF7ECFFBA
:103030004FF400400449091D0860FFF7E5FF4FF415
:1030400080600249486110BD100C01400010014031
:1030500010B54FF480600A49486140010949086091
:10306000FFF7D2FF4FF4806005490861FFF7CCFFFE
:103070004FF400400349091F0860FFF7C5FF10BD6A
:1030800000100140140C014070B5044600251CE0FE
:1030900004F0800020B14FF400401549086004E0BE
:1030A0004FF400401249091D0860FFF7ADFF4FF4CF
:1030B000806010490861FFF7A7FF4FF480600D4959
:1030C00048616006040E681CC5B2082DE0DB4FF4B1
:1030D000004007490860FFF797FF4FF480600549FB
:1030E0000861FFF791FF4FF480600249486170BDAD
:1030F000100C01400010014070B51346802801DA21
:10310000402900DB70BD01F007050124AC40E2B2AC
:103110005BB1CC100B4D05EBC414245C1443CD10F3
:10312000084E06EBC5152C540AE0CC10054D05EBF6
:10313000C414245C9443CD10024E06EBC5152C54E8
:1031400000BFDFE79810002070B50546FFF766FF67
:103150007820FFF799FF4020FFF796FF002404E056
:10316000285DFFF791FF601CC4B2802CF8DBFFF7ED
:103170006FFF70BD7047000001460020034A506891
:1031800020F44040084350607047000000100240A7
:1031900029B1064A52690243044B5A6104E0034ACA
:1031A00052698243014B5A6170470000001002408F
:1031B00029B1064AD2690243044BDA6104E0034AAA
:1031C000D2698243014BDA6170470000001002406F
:1031D00029B1064A92690243044B9A6104E0034A0A
:1031E00092698243014B9A617047000000100240CF
:1031F00029B1064AD2680243044BDA6004E0034A6C
:10320000D2688243014BDA60704700000010024030
:1032100030B500210022002400232D4D6D6805F0FB
:103220000C0121B1042905D0082923D105E0294D3D
:10323000056022E0274D05601FE0254D6D6805F40F
:103240007012234D6D6805F48034022505EB92421F
:103250001CB9214D554305600BE01D4D6D6805F40B
:1032600000351DB11C4D5543056002E0194D554315
:10327000056002E0174D056000BF00BF144D6D688A
:1032800005F0F0010909154D6B5C0568DD404560EE
:103290000F4D6D6805F4E061090A104D6B5C4568DF
:1032A000DD4085600A4D6D6805F46051C90A0B4D1B
:1032B0006B5C4568DD40C560054D6D6805F44041B7
:1032C000890B074D6B5CC568B5FBF3F5056130BD37
:1032D0000010024000127A0000093D004D0000205D
:1032E0005D000020704710B500F002F810BD00002E
:1032F0000CB50020019000903348006840F4803005
:103300003149086000BF3048006800F40030009088
:103310000198401C0190009818B90198B0F5A06F71
:10332000F1D12948006800F4003010B1012000906C
:1033300001E0002000900098012843D12348006854
:1033400040F01000214908600846006820F00300A2
:1033500008600846006840F0020008601A484068AB
:10336000194948600846406848600846406840F48B
:10337000806048600846406820F47C104860084639
:10338000406840F4E81048600846006840F08070EB
:10339000086000BF0C48006800F000700028F9D0F9
:1033A0000948406820F00300074948600846406823
:1033B00040F00200486000BF0348406800F00C0085
:1033C0000828F9D10CBD0000001002400020024086
:1033D0007047000010B5002100200022214B5B68DF
:1033E00003F00C0121B1042906D0082928D107E0F7
:1033F0001D4B1E4C236027E01B4B1C4C236023E01D
:10340000184B5B6803F47010164B5B6803F4803252
:10341000022303EB904022B9154B4343134C236026
:103420000DE0104B5B6803F4003323B1104B4343B2
:103430000E4C236003E00C4B43430C4C236003E031
:10344000094B0A4C236000BF00BF064B5B68C3F307
:103450000313084CE15C054B1B68CB40034C236015
:1034600010BD00000010024000127A00640000202D
:1034700000093D006800002010B51348006840F0C6
:1034800001001149086008464068104908400E498B
:103490004860084600680E4908400B490860084625
:1034A000006820F4802008600846406820F4FE0090
:1034B00048604FF41F008860FFF715FF4FF0006071
:1034C0000449086010BD0000001002400000FFF831
:1034D000FFFFF6FE08ED00E0F0B50C4615460022B1
:1034E0000021068C4FF6FE773E400684028B018C4D
:1034F0004FF60C7632407E1C06EA03162E4332430A
:10350000104EB0420ED0104EB0420BD0B0F1804FF2
:1035100008D00E4EB04205D00D4EB04202D00D4E36
:10352000B04206D14FF6FD76314044F001063143FA
:1035300005E04FF6F576314044F001063143028351
:103540000184F0BD002C0140003401400004004023
:1035500000080040000C0040F0B50C461546002263
:1035600000210026078C4FF6EF7C07EA0C07078442
:10357000028B018C4FF6FF7707EA041640F6FF47EF
:103580003A404FF6FF7707EA03373A434FF6FF77A3
:1035900007EA05273A43114FB8420ED0104FB84200
:1035A0000BD0B0F1804F08D00E4FB84205D00E4F6F
:1035B000B84202D00D4FB84206D14FF6DF773940FE
:1035C00046F01007394305E04FF65F77394044F085
:1035D0001007394302830184F0BD0000002C014034
:1035E000003401400004004000080040000C00408E
:1035F000F0B50C461546002200210026078C4FF638
:10360000FF6C07EA0C070784828B018C4FF6FF776B
:1036100007EA04264FF60C773A404FF6FF7707EAA1
:1036200003172F433A43114FB8420ED0104FB84200
:103630000BD0B0F1804F08D00E4FB84205D00E4FDE
:10364000B84202D00D4FB84206D14FF6FF5739406D
:1036500046F48077394305E04FF2FF57394044F490
:103660008077394382830184F0BD0000002C014043
:10367000003401400004004000080040000C0040FD
:10368000F0B50C461546002200210026078C4EF6A8
:10369000FF7C07EA0C070784828B018C4FF6FF77CB
:1036A00007EA043640F6FF473A404FF6FF7707EA4D
:1036B00005273A434FF6FF7707EA03373A43114F9E
:1036C000B8420ED0104FB8420BD0B0F1804F08D0A6
:1036D0000E4FB84205D00E4FB84202D00D4FB8423F
:1036E00006D14DF6FF77394046F48057394305E05F
:1036F00047F6FF57394044F48057394382830184A9
:10370000F0BD0000002C01400034014000040040E6
:1037100000080040000C0040CA430282704721B1FB
:10372000028842F00102028004E002884FF6FE7334
:103730001A4002807047F0B50C4615461E4600211F
:10374000002200230189028B038C4FF6F877394061
:1037500021434FF6FC473A4040F201173A434FF6F7
:10376000DD773B404FF6FF7707EA06172F433B43D1
:10377000018102830384F0BD818270470146888CF9
:103780007047000070B505460C46244885420ED0AF
:10379000234885420BD0B5F1804F08D0214885429F
:1037A00005D02148854202D02048854200D100E062
:1037B00000BF208850B92389A28861882846FFF776
:1037C0008BFEE188284600F0B1F825E02088042827
:1037D0000AD12389A28861882846FFF7BDFEE188C7
:1037E000284600F0ACF817E0208808280AD1238981
:1037F000A28861882846FFF7FBFEE188284600F092
:10380000ABF809E02389A28861882846FFF738FFD2
:10381000E188284600F0A9F870BD0000002C0140A6
:10382000003401400004004000080040000C00404B
:10383000002101804180012181800021C18001811E
:103840007047000070B5002400220023058C4FF65D
:10385000EF7635400584028C8388048B48F6FF752B
:103860002C404FF6FF452C400D884FF6FF7606EAB8
:1038700005252C434FF6DF752A400D8906EA05150C
:103880002A434D8806EA05152A43154DA84202D061
:10389000144DA8421DD14FF67F752A404D894FF631
:1038A000FF7606EA05152A434FF6BF752A408D8834
:1038B00006EA05152A434FF6FF352B404FF2FF75F8
:1038C0002B408D8906EA85052B43CD8906EA8505BF
:1038D0002B4383800483CD880587028470BD00005C
:1038E000002C0140003401400A460021018B4FF2B8
:1038F000FF7319404FF6FF7303EA02231943018354
:1039000070470021018041808180C1800181418117
:103910008181C181704782884FF68F731A408280FF
:1039200082880A438280704781847047028B4FF6F9
:10393000F3731A400283028B0A4302837047028B9F
:103940004FF2FF331A400283028B4FF6FF7303EAF4
:1039500001231A4302837047828B4FF6F3731A4098
:103960008283828B0A4382837047828B4FF2FF33BC
:103970001A408283828B4FF6FF7303EA01231A43B6
:1039800082837047002202881D4B98420ED01D4B47
:1039900098420BD0B0F1804F08D01B4B984205D015
:1039A0001A4B984202D01A4B984204D14FF68F73AB
:1039B0001A404B881A43174B984207D0164B98422F
:1039C00004D04FF6FF431A40CB881A4302808B88FD
:1039D00083850B8803850A4B98420BD0094B98428C
:1039E00008D00E4B984205D00D4B984202D00D4B9B
:1039F000984201D10B7A038601238382704700002D
:103A0000002C014000340140000400400008004048
:103A1000000C004000100040001400400040014035
:103A200000440140004801404FF6FF7181800021B1
:103A30000180C180418001727047000070B540F282
:103A40002551134800F054F9C8B1114800F00CFAA0
:103A5000C5B21048008800F0D1F804460E4800882E
:103A6000844206D00D480B49098845540948048012
:103A700004E00B480088401C0949088000BF082169
:103A8000034800F028F910B1014800F0EDF970BDCD
:103A90000038014046000020480000209814002013
:103AA0004A00002010B592B00446012144F20500FE
:103AB000FFF78EFB01210846FFF76AFB4FF4007009
:103AC000ADF8440018208DF8470003208DF846001B
:103AD00011A93748FEF79EFF4FF48060ADF844000F
:103AE00004208DF8470011A93148FEF793FF0D948B
:103AF0000020ADF83800ADF83A00ADF83C00ADF864
:103B000040000C20ADF83E000DA92A4800F040F915
:103B10002948FEF747FD02A8FEF72DFE2548001DA7
:103B20000290264803901020049001200590002068
:103B30000690802007900020089009900A900B9032
:103B40000C9002A91C48FEF7F6FD01220A211A4832
:103B5000FEF7E8FD01228021164800F0B3F80122AB
:103B600040F22551134800F0EDF825208DF80400AF
:103B700001208DF805008DF806008DF8070001A8DA
:103B8000FFF7D8F80E208DF8040002208DF805000C
:103B900000208DF8060001208DF8070001A8FFF72E
:103BA000C9F80121034800F081F812B010BD0000EF
:103BB0000008014000380140440002401815002070
:103BC00010B504462CB10A4800880A490988884281
:103BD00001D1002010BD084806490988405C2070CA
:103BE0000448008800F00AF8024908800120F1E743
:103BF000460000204800002098140020411C88B294
:103C0000802800DB0020704710B504462146054897
:103C100000F02FF900BF8021024800F05CF8002876
:103C2000F9D010BD0038014070B505460C4635B1DD
:103C30002CB1B4F5807F02DC0F48007808B1002079
:103C400070BD224629460D48FCF7CFFD00210C48E7
:103C5000FEF79CFC4FF48050FEF77CFC21460848A0
:103C6000FEF787FD01200449087001210448FEF792
:103C70008DFC0120E4E700004C0000201815002016
:103C80004400024010B5044604B910BD03E020789A
:103C9000FFF7BAFF641C20780028F8D100BFF4E7D2
:103CA00001480078704700004C00002021B1828953
:103CB00042F40052828104E082894DF6FF731A407B
:103CC000828170471AB1838A0B43838202E0838A20
:103CD0008B438382704702460020B1F5007F00D1FC
:103CE00000BF13880B400BB1012000E0002070479B
:103CF00070B50246002400230025002040F66A1615
:103D0000B14200D100BFC1F3421501F01F030126EB
:103D100006FA03F3012D02D19689334006E0022D05
:103D200002D1168A334001E0968A33400C120126F4
:103D300006FA04F41688344013B10CB1012000E0F7
:103D4000002070BDF0B503460024002600250020A9
:103D500040F66A17B94200D100BF1846C1F34214B9
:103D600001F01F06012707FA06F5012C01D10C30DE
:103D700004E0022C01D1103000E014301AB10768C1
:103D80002F43076002E00768AF430760F0BD000003
:103D90002DE9F04786B005460E460024A24600BF36
:103DA000A1460027B08900B100BF2F462C8A4CF6EF
:103DB000FF700440F08804432C82AC894EF6F31067
:103DC0000440B08831890843718908430443AC81B9
:103DD000AC8A4FF6FF400440B0890443AC8201A88E
:103DE000FFF716FA1F48874202D1DDF810A001E064
:103DF000DDF80CA0A88900F4004040B10AEBCA002D
:103E000000EB0A1031684900B0FBF1F807E00AEB5B
:103E1000CA0000EB0A1031688900B0FBF1F8642099
:103E2000B8FBF0F004012009642101FB1089A88986
:103E300000F4004040B1322000EBC900B0FBF1F0CB
:103E400000F00700044308E0322000EB0910642171
:103E5000B0FBF1F000F00F0004432C8106B0BDE888
:103E6000F08700000038014001468888C0F3080050
:103E70007047C1F308028280704700BFFEE7303808
:103E80000A2801D201207047002070474FF4A0603B
:103E9000FEF788FF4FF4E130FFF704FE6420FEF7E1
:103EA00078FC06A0FFF7EEFEFDF7B0F804E0FDF7A2
:103EB000C5F90120FEF76DFCF9E700004265617469
:103EC0002D6672657175656E63792070726F6A65B3
:103ED00063742072656164792E0D0A000A2000E087
:103EE00000BF011EA0F10102D0B2F9D1704700005D
:103EF00008B501211820FFF76BF94FF48060ADF889
:103F0000000003208DF8020014208DF8030069469C
:103F10000748FEF77FFD4FF40040ADF8000069460A
:103F20000448FEF777FD00F0ADF800F0BBF808BDDF
:103F300000100140000C014010B500F0B3F800F093
:103F4000A1F8FFF7CBFF00F0B5F8FFF7C7FF00F0CF
:103F5000A1F810BD10B500F09DF800F0ABF8FFF728
:103F6000BDFF00F08FF8FFF7B9FF00F09BF8FFF7F7
:103F7000B5FF10BD70B50446002513E004F08000C5
:103F800010B100F08FF801E000F094F8FFF7A6FF01
:103F900000F078F8FFF7A2FF00F07CF86006040E4E
:103FA000681CC5B2082DE9DB00F07CF8FFF796FF2E
:103FB00000F068F8FFF792FF00F084F808B90120DC
:103FC00000E00020064600F065F8304670BD10B5F0
:103FD000FFF78EFF6420FEF7DCFBAE2000F090F8C8
:103FE000202000F08DF8102000F08AF8B02000F0BA
:103FF00087F8C82000F084F8002000F081F8102035
:1040000000F07EF8402000F07BF8812000F078F886
:10401000FF2000F075F8A12000F072F8A62000F053
:104020006FF8A82000F06CF83F2000F069F8A42099
:1040300000F066F8D32000F063F8002000F060F88C
:10404000D52000F05DF8F02000F05AF8D92000F0FB
:1040500057F8222000F054F8DA2000F051F812202E
:1040600000F04EF8DB2000F04BF8202000F048F87C
:104070008D2000F045F8142000F042F8AF2000F049
:104080003FF810BD4FF4806001490861704700009F
:10409000001001404FF48060014948617047000002
:1040A000001001404FF400400149086070470000D3
:1040B000100C01404FF400400149086070470000B7
:1040C000140C01400448006800F4004008B10120CD
:1040D00070470020FCE70000080C014070B5044662
:1040E0000D4605F1B001C8B200F00AF8102141EA0E
:1040F000141000F005F804F00F0000F001F870BD96
:1041000010B50446FFF718FF7820FFF733FF0020B3
:10411000FFF730FF2046FFF72DFFFFF71BFF10BD15
:1041200010B500290AD00878002807D0054878443F
:10413000FCF728FD002801D0002010BD024878447B
:1041400010BD0000CE030000C60300004008200898
:10415000FE0B00100010FC3100300050FC910010EC
:104160000010FC1104110411FC110411F01F1010B7
:1041700010101010F01F0000FEFF00080010F01FCC
:10418000100010001000A0004000000020002020BF
:104190002010FE1322822442204AFC0B8412881233
:1041A00048E250222022502488240609847F0412E9
:1041B0000812101222120212C4FF08121012221248
:1041C0000212042208221042608200000010FE1138
:1041D0000010F87C88548854F8540054FC55245539
:1041E0002455FC5D24112411FC11041100018000F0
:1041F000FE3F20222022FC3F20222022E02300201C
:10420000F02F10242042C04130860E380008FC08F0
:104210008408840884FEFC088418841C842AFC2AF0
:104220008448848884088408FC088408800840083E
:1042300040080010FC170030083008520892101196
:104240001011101120112010FE1F0010FC7F000122
:104250000001000100010011F8110011001100110E
:10426000001100110011FEFF00000000400020F8C6
:104270002008FE0B4008407888400841F043207831
:10428000400888080409FC0B04510020FC7F000052
:10429000000000000000F83F0000000000000000E7
:1042A0000000FEFF00000000000000000008000801
:1042B000E01F20204040F8BF08210821F83F0821D6
:1042C0000821F83F08210841284110800020FC23E4
:1042D000043A0422FC43207A20A2FE2320FA202262
:1042E000FC228422842A8434FC24840800010001F6
:1042F000F811001100110011FEFF00000821082133
:104300008822482428280820F83F080000020001DD
:104310000001FEFF000400040004F0071004100474
:104320001004100810081010A020404000030609D7
:104330000C101316191C1F2225282B2E3133363949
:104340003C3F414447494C4E515355585A5C5E607E
:10435000626466686A6B6D6F707173747576787974
:104360007A7A7B7C7D7D7E7E7E7F7F7F7F3E51491A
:10437000453E00427F400042615149462141454B44
:10438000311814127F1027454545393C4A494930B8
:1043900001710905033649494936064949291E7EF6
:1043A0001111117E7F494949363E414141227F41E9
:1043B00041221C7F494949417F090909013E414980
:1043C000497A7F0808087F00417F41002040413F33
:1043D000017F081422417F404040407F020C027F51
:1043E0007F0408107F3E4141413E7F090909063E96
:1043F0004151215E7F091929464649494931010148
:104400007F01013F4040403F1F2040201F7F201878
:10441000207F631408146303047804036151494541
:10442000434552522C4E4F5F4144430D0A00000059
:1044300000000000000000003031323334353637E0
:1044400038394142434445464030580030313233D8
:1044500034353637383961626364656640307800D8
:10446000040000080000000000000002000100003D
:104470001000000078313D257320636C6B3D256C86
:10448000752066733D256C752074363D2575207446
:10449000323D2575206363323D257520646D613D95
:1044A00025752073656C663D2575206164633D2527
:1044B00075206672616D653D256C75206669666F55
:1044C0003D2575206D696E3D2575206D61783D2512
:1044D00075207065616B3D25750D0A000C4600085E
:1044E00000000020980000006C010008A4460008AD
:1044F00098000020E81E000088010008100100005C
:1045000043000000F8FFFFFF0040404040404040B3
:104510004040414141414140404040404040404096
:10452000404040404040404040050202020202023A
:104530000202020202020202022020202020202089
:10454000202020020202020202029090909090909D
:10455000101010101010101010101010101010105B
:1045600010101010020202020202888888888888CF
:1045700008080808080808080808080808080808BB
:1045800008080808020202024000000000000000C3
:10459000000000000000000000000000000000001B
:1045A000000000000000000000000000000000000B
:1045B00000000000000000000000000000000000FB
:1045C00000000000000000000000000000000000EB
:1045D00000000000000000000000000000000000DB
:1045E00000000000000000000000000000000000CB
:1045F00000000000000000000000000000000000BB
:1046000000000000000000000000000000000B009F
:104610000A00000000000000000000000000000090
:10462000000000000000000000000000000000008A
:104630000000000000A24A040020000080020000E8
:104640000000000000000000000000000001FF006A
:10465000FF00000000000000000000000001020355
:10466000040102030406070809020406080000000A
:1046700000A24A0400000000000000000102030440
:10468000060708090000000000000000000000000C
:10469000000000000000000000000000000000001A
:0446A0000000000016
:0400000508000131BD
:00000001FF
