S3150800000090AE00205D0200089D440008CF3D000820
S3150800001099440008BB3400085B5200080000000041
S3150800002000000000000000000000000095460008DF
S315080000303D3800080000000025450008B1470008C3
S31508000040770200087702000877020008770200089E
S31508000050770200087702000877020008770200088E
S31508000060770200087702000877020008553500086D
S315080000707702000877020008813500087702000831
S31508000080770200087702000877020008770200085E
S31508000090770200087702000877020008D9390008B5
S315080000A0770200087702000877020008770200083E
S315080000B0770200087702000877020008770200082E
S315080000C0770200087702000877020008770200081E
S315080000D0770200081D4E000877020008770200081C
S315080000E077020008770200087702000877020008FE
S315080000F077020008770200087702000877020008EE
S3150800010077020008770200087702000877020008DD
S3150800011077020008770200087702000877020008CD
S315080001207702000877020008CD3500087702000834
S3150800013000F002F800F082F80AA090E8000C824469
S315080001408344AAF10107DA4501D100F077F8AFF246
S31508000150090EBAE80F0013F0010F18BFFB1A43F097
S3150800016001031847486B0000686B00000A444FF00B
S31508000170000C10F8013B13F0070408BF10F8014BF8
S315080001801D1108BF10F8015B641E05D010F8016B3D
S31508000190641E01F8016BF9D113F0080F1EBF10F8A1
S315080001A0014BAD1C0C1B09D16D1E58BF01F801CBC4
S315080001B0FAD505E014F8016B01F8016B6D1EF9D547
S315080001C09142D6D37047000000230024002500265C
S315080001D0103A28BF78C1FBD8520728BF30C148BF9C
S315080001E00B607047692900F04F81642900F04C8143
S315080001F0752900F049816F2900F0E081782900F01F
S3150800020005820368DB0928BF41F08001632900F0F5
S31508000210FE83732900F00384E32900F00E8400208E
S3150800022070471FB500F0BCFC04000020002105F053
S3150800023057FB401C60601FBD10B510BD00F08AFC5E
S315080002401146FFF7EEFF05F023FB00F0ADFC03B403
S31508000250FFF7F2FF03BC00F0F5FC000009488047F1
S3150800026009480047FEE7FEE7FEE7FEE7FEE7FEE78A
S31508000270FEE7FEE7FEE7FEE704480549054A064BA2
S3150800028070470000594800083101000890A800206E
S3150800029090AE002090AA002090AA002053EA020CF3
S315080002A000F069802DE9F04B4FF00006002B1FBFC8
S315080002B0B3FA83F503FA05F424FA05F65E4012BF8D
S315080002C01643B2FA82F502FA05F4C5F120051EBFF7
S315080002D022FA05FC44EA0C04203556EA044C4FEA97
S315080002E0144418BF641C4FF000084FF000099042F0
S315080002F071EB030C39D3002919BFB1FA81F701FA5A
S3150800030007F6B0FA80F700FA07F6C7F120071EBF0E
S3150800031020FA07FC46EA0C062037B6FBF4FCA7EBE6
S315080003200507103F07F01F0BCBF120060CFA0BFB55
S315080003302CFA06F644BFB3460026202FA4BF5E4615
S315080003404FF0000B5BEA060C08BF4FF0010B19EBE8
S315080003500B09ABFB027C48EB0608C01B06FB02CC6C
S315080003600BFB03CC71EB0C01C1E70B460246414679
S315080003704846BDE8F08B13B54FF000004FF000017A
S31508000380AFF30080BDE81C40704700000FB47CB591
S315080003900C0009AA009001D02044401E084B7B445B
S315080003A069460190089800F008FB05461CB1002034
S315080003B0694600F015FB28467CBC5DF814FB000076
S315080003C04906000070B5044685690068C10601D56E
S315080003D0302600E02026C00707D070BDD4E90121E9
S315080003E030469047206A401C20626D1EF6D570BDC7
S315080003F070B5044685690078C00707D170BDD4E991
S31508000400012120209047206A401C20626D1EF6D5E7
S3150800041070BD09684A0501D540B27047C905FCD5C3
S3150800042000B2704709684A0501D5C0B27047C905C8
S31508000430FCD580B2704770B50C460546012A05D032
S315080004402878800600D5EA69002302E0012305E042
S315080004505B1C934202D2E05C0028F9D1A869E61831
S31508000460C01AA861286A184428622846FFF7AAFF16
S3150800047004E0D5E9012114F8010B9047B442F8D3FA
S315080004802846FFF7B5FF70BD2DE9F0410646002462
S3150800049010687529314616A510D0FFF7BAFF00284F
S315080004A002DA404213A507E031688A0701D512A58A
S315080004B002E0490704D511A5012401E0FFF7B2FFC0
S315080004C000210A2206F1240709E0B0FBF2FCB0FB82
S315080004D0F2F302FB1C00303078541846491C0028F9
S315080004E0F3D123462A463046BDE8F04100F007BA64
S315080004F0000000002D0000002B0000002000000076
S315080005002DE9FF5F15468A460446DFF8AC80F844B5
S315080005100027D8E900103E46CDE9001010E03AF869
S3150800052016106A4602A800F094FA411C07D02178F2
S31508000530890603D5E269391891420DD80744761C15
S315080005402078800602D5E069B84205DDAE42E6DBD2
S315080005503AF816000028E2D1A069C01BA06120461F
S31508000560FFF730FFD8E90010CDE90010002017E0AA
S315080005703AF818106A4602A800F06BFAB0F1FF3F85
S3150800058081460BD000250DF1080B05E0D4E90121C1
S315080005901BF8050090476D1C4D45F7D308F101007F
S315080005A0B0428046E4DB206A384420622046FFF7E2
S315080005B01FFFBDE8FF9F00007E66000070B5044679
S315080005C021461068FFF72EFF002104F1240505E0F7
S315080005D000F007023032C0086A54491C0028F7D1D7
S315080005E02068002307A2050707D5800600D421B195
S315080005F0E069012304A2401EE0612046BDE8704080
S3150800060000F07DB9000000003000000070B5044617
S315080006100D4621461068FFF705FF2188090502D512
S315080006200F4A7A4402E00E4A7A440E32002104F157
S31508000630240305E000F00F060009965D5E54491C88
S315080006400028F7D120780023000704D5702D02D0A2
S3150800065009B1022311322046BDE8704000F04FB9B7
S31508000660726500002DE9F05F894604464FF0000ADE
S31508000670DFF874B1FB44C0F820A02046E16888473B
S31508000680002874D0252806D0D4E901219047206A8D
S31508000690401C2062F1E700265F462046E16888474D
S315080006A02028054607DB312D05D2781910F8200CCD
S315080006B008B10643F1E7B00701D526F00406C4F8E9
S315080006C01CA00027C4F818A02A2D09D0284604F033
S315080006D0C6FD38B304EB8708303DC8F8185019E052
S315080006E059F8041B204604EB87029161E1688847A4
S315080006F0012F054618D1E069002820DA26F02006E1
S315080007001DE0D8F8180000EB800005EB40003038F3
S31508000710C8F818002046E1688847054604F09FFD9A
S315080007200028EED1012F0AD02E2D08D12046E168E7
S3150800073088477F1C0546022F46F02006C4DBA069C1
S31508000740002803DA404246F00106A061F00701D00E
S3150800075026F010066C2D0BD0682D09D04C2D39D0FB
S315080007606A2D35D0742D35D07A2D33D016E038E081
S31508000770E1682F4620468847B842054609D16C2FBE
S3150800078026D04FF48060E168064320468847054630
S3150800079004E06C2F1AD04FF4807006430DB3A5F110
S315080007A04100192802D8203546F400664A462946EB
S315080007B0204626604E46FFF715FD80B101280BD06E
S315080007C0F61D26F0070000F1080956E74020E4E781
S315080007D08020D8E70020D6E706F104094DE7284629
S315080007E052E7206ABDE8F09F4865000010B5431C33
S315080007F002E010F8011B71B18107FAD14FF00132FE
S3150800080002C88C1A8C4314EAC211F9D0C01A0A0617
S3150800081003D0C01E10BDC01A10BD0A0401D0801E28
S3150800082010BD0902FCD0401E10BD032A40F23080DC
S3150800083010F0030C00F0158011F8013BBCF1020F13
S31508000840624498BF11F801CB00F8013B38BF11F894
S31508000850013BA2F1040298BF00F801CB38BF00F8AB
S31508000860013B11F0030300F01481083AC0F0088038
S3150800087051F8043B083A51F804CBA0E80810F5E70C
S31508000880121D5CBF51F8043B40F8043BAFF30080EF
S31508000890D20724BF11F8013B11F801CB48BF11F864
S315080008A0012B24BF00F8013B00F801CB48BF00F834
S315080008B0012B70474FF000020429C0F0128010F097
S315080008C0030C00F01A81CCF1040CBCF1020F18BF1E
S315080008D000F8012BA8BF20F8022BA1EB0C0100F0B1
S315080008E00CB95FEAC17C24BF00F8012B00F8012B84
S315080008F048BF00F8012B70477047704770472DE9CD
S31508000900F0470D4699469246044600F124080168C8
S31508000910880604D5E06921F01001216000E0012075
S31508000920A84201DD471B00E00027A1697A1902EBFE
S315080009300900081AA0612078C00602D42046FFF7ED
S3150800094041FD002608E0D4E901211AF8060090477F
S31508000950206A401C761C20624E45F4DB2078C006CF
S315080009600AD52046FFF72EFD06E0D4E901213020FE
S315080009709047206A401C2062381EA7F10107F4DC64
S3150800098007E0D4E9012118F805009047206A401CC1
S315080009902062281EA5F10105F3DC2046FFF728FD95
S315080009A02078000602D50220BDE8F0870120FBE783
S315080009B001694A1C02610878704700B58FB0CDE915
S315080009C001310021059105497944CDE90310114605
S315080009D06846FFF747FE0FB000BD0000E5FFFFFFC2
S315080009E00A6802F8010B0A607047D1E900239A42A7
S315080009F002D2531C0B601070704710B5436913B1CF
S31508000A00AFF3008001E0FFF716FD012010BD127854
S31508000A1000F124010A7000224A700122EDE71168EC
S31508000A204FF0FF32E9E710B5436913B1AFF3008021
S31508000A3001E0FFF765FD012010BD128800F12401D1
S31508000A4082840022C2840122EDE711684FF0FF324A
S31508000A50E9E770B516460C46054600F073F80368D4
S31508000A6093F80101012806D0FF2C0FD8185D68B14C
S31508000A7001202C7070BDD3F807013246214603F2D7
S31508000A80071303442846BDE8704018474FF0FF3067
S31508000A9070BD10B5203AC0F00B80B1E81850203A66
S31508000AA0A0E81850B1E81850A0E81850BFF4F5AF00
S31508000AB05FEA027C24BFB1E81850A0E8185044BF8A
S31508000AC018C918C0BDE810405FEA827C24BF51F8F7
S31508000AD0043B40F8043B08BF7047D20728BF31F8EB
S31508000AE0023B48BF11F8012B28BF20F8023B48BF3C
S31508000AF000F8012B70474FF0000200B513469446E4
S31508000B009646203922BFA0E80C50A0E80C50B1F157
S31508000B102001BFF4F7AF090728BFA0E80C5048BF6B
S31508000B200CC05DF804EB890028BF40F8042B08BF09
S31508000B30704748BF20F8022B11F0804F18BF00F805
S31508000B40012B704710B500F02BF8001D10BD00BF33
S31508000B50914D0000754600F031F8AE46050069462D
S31508000B60534620F00700854618B020B5FFF784FBEA
S31508000B70BDE820404FF000064FF000074FF0000890
S31508000B804FF0000B21F00701AC46ACE8C009ACE811
S31508000B90C009ACE8C009ACE8C0098D46704700003A
S31508000BA0004870474CA8002010B50446AFF30080F3
S31508000BB02046BDE81040FFF74ABB000000487047D2
S31508000BC02CA800204FF0013C50F8042B51F8043BA8
S31508000BD09A4221D1A2EB0C03934313EACC1317D103
S31508000BE050F8042B51F8043B9A4215D1A2EB0C039A
S31508000BF0934313EACC130BD150F8042B51F8043B5A
S31508000C009A4209D1A2EB0C03934313EACC13DBD027
S31508000C104FF00000704700BFD01A01BAB1FA81F14F
S31508000C2001F0180122FA01F0CB40C1F12001DBB234
S31508000C30C0B2C01A2CFA01F3D11A914311EAC311B2
S31508000C40E6D1704701491820ABBEFEE72600020030
S31508000C507047CA430260704721B1826842F00102B8
S31508000C60826003E0826822F001028260704721B147
S31508000C70826842F48072826003E0826822F480729D
S31508000C808260704710B504461248844208D1012193
S31508000C90401503F085FC0021601503F081FC17E080
S31508000CA00D48844208D10121001503F079FC002182
S31508000CB0201503F075FC0BE00848844208D1012191
S31508000CC0C80303F06DFC00214FF4004003F068FCF4
S31508000CD010BD00000024014000280140003C0140EE
S31508000CE021B1826842F48012826003E0826822F4AD
S31508000CF0801282607047014600208A6802F004026A
S31508000D000AB1012000E0002070470146C86C80B295
S31508000D1070470246002013680B400BB1012000E023
S31508000D2000207047014600208A6802F008020AB1CE
S31508000D30012000E00020704730B50246002000235D
S31508000D4050680F4C20400D790C6844EA052420436E
S31508000D50506090680B4C2040D1E902542C434D79E1
S31508000D6044EA450420439060D06A20F470000C7C65
S31508000D70641EE4B2234340EA0350D06230BD00004B
S31508000D80FFFEF0FFFDF7F1FFF0B504460D46002023
S31508000D900021092D11DDE068A5F10A0606EB4607D4
S31508000DA0072606FA07F18843A5F10A0606EB460662
S31508000DB003FA06F10843E0600CE0206905EB4507F5
S31508000DC0072606FA07F1884305EB450603FA06F1F6
S31508000DD008432061072A0FDA606B561E06EB860762
S31508000DE01F2606FA07F18843561E06EB860605FAFD
S31508000DF006F10843606322E00D2A0FDA206BD61F3E
S31508000E0006EB86071F2606FA07F18843D61F06EB68
S31508000E10860605FA06F10843206310E0E06AA2F1A7
S31508000E200D0606EB86071F2606FA07F18843A2F188
S31508000E300D0606EB860605FA06F10843E062F0BDE4
S31508000E40816841F008018160704721B1826842F4E7
S31508000E50A002826003E0826822F4A00282607047E2
S31508000E60816841F0040181607047002101600171C9
S31508000E7041718160C160012101747047F8B504466B
S31508000E8000F094F9064600F089F9074604480094EC
S31508000E90006833463A460021856B0846A847F8BDE0
S31508000EA0540000202DE9F04106460F461446A4F1E9
S31508000EB020000B498968C98848430949896889888F
S31508000EC0CD1DE91705EB5171C910054B9B681B68C9
S31508000ED000FB01323946304602F0D4FCBDE8F08109
S31508000EE07C0100202DE9FF5F044615461F464FF09A
S31508000EF001084FF000090026B246AB4600E0761C12
S31508000F001BF8011B0029FAD100F048F9284989681D
S31508000F10898890FBF1FA012F04D0022F0FD0032FF6
S31508000F2018D10AE0AAEB060021498968898848434E
S31508000F3004EB50001FFA80F80EE0A0460CE0AAEB7E
S31508000F4006001B4989688988624200FB01201FFA4E
S31508000F5080F801E0A04600BF00BF0FE02A784046AF
S31508000F600199FFF79FFF12488068808840441FFA5E
S31508000F7080F86D1C09F101001FFA80F900F00EF9DE
S31508000F800B498968898809FB110080B20849896874
S31508000F908988884201DB012000E00020297809B110
S31508000FA0012100E0002108400028D7D1BDE8FF9FB5
S31508000FB07C0100202DE9F04705460E461446002719
S31508000FC0B846A07CE17C00EB0120217D00EB0140C6
S31508000FD0617D00EB0168A07DE17D00EB0120217EAB
S31508000FE000EB0140617E00EB0167BBB21FFA88F295
S31508000FF03146284603F050FB0C480068006B30B1B8
S315080010000A48006822463146036B2846984700F08E
S31508001010CDF8814600F0C2F882464B46524600217A
S31508001020084603F039FBBDE8F087000054000020AD
S315080010302DE9F04104460F46154600260F4800687C
S31508001040006A58B10E49098888B20C4909682B46C6
S315080010503A46D1F820C02146E0470CE0002608E0D1
S31508001060074909888AB2A11988B2394600F00AF8F0
S31508001070761CAE42F4D3BDE8F0810000540000208F
S315080010807C01002070B504460D46164605480068E2
S31508001090406930B10348006832462946436920460C
S315080010A0984770BD540000202DE9F84304460D46C4
S315080010B016461F46DDF820800648CDF800800068F1
S315080010C03B4632462946D0F834C02046E047BDE8BC
S315080010D0F8830000540000202DE9F04105460E462D
S315080010E017461C463A4631462846FFF7A1FF3019EF
S315080010F0401E81B23A462846FFF79AFF22463146F5
S31508001100284600F009F8E919491E88B222463146F0
S3150800111000F002F8BDE8F0812DE9F04107460C46DB
S31508001120154600260F480068406A58B10E490988D6
S3150800113088B20C4909682B462246D1F824C039469C
S31508001140E0470CE0002608E00748008882B2A019AC
S3150800115081B23846FFF796FF761CAE42F4D3BDE857
S31508001160F0810000540000207C010020F8B50446F8
S315080011700D4616461F460748008880B20090064866
S3150800118000683B4632462946D0F838C02046E04734
S31508001190F8BD00007C0100205400002010B502496B
S315080011A00968886A804710BD5400002010B50249B6
S315080011B00968C86A804710BD5400002010B501248C
S315080011C007490968086880470020064948604FF6BD
S315080011D0FF700860044888600024204610BD00009F
S315080011E0540000207C0100200000002001494860CE
S315080011F0704700007C0100200149886070470000A4
S315080012007C01002001490860704700007C0100202D
S3150800121033E03A49097839B939490978491C01F05E
S315080012200301374A117026E034490978012907D1A4
S3150800123033494978491C01F00301314A51701AE0D3
S315080012402E490978022909D12D4989780B2905D211
S315080012502B498978491C2A4A91700CE02749097854
S31508001260032908D12649C9780C2904D22449C97802
S31508001270491C234AD170411E08B20028C9DC3AE04D
S315080012801E49097859B91E49097809B9032103E0A5
S315080012901B490978491EC9B2194A117029E017492C
S315080012A0097801290BD11649497809B9032103E0C0
S315080012B013494978491EC9B2114A517019E00F49B4
S315080012C00978022909D10E498978012905D90C49D5
S315080012D08978491E0A4A91700BE00849097803295A
S315080012E007D10749C97821B10549C978491E044A71
S315080012F0D170411C08B20028C2DB7047EA00002002
S31508001300E500002010B50446012C16D123480078C4
S3150800131048B9234800F096FE0120204908700020AD
S315080013202049087005E01F48007810B900201B49BD
S31508001330087001201C4908702FE0022C18D11748A4
S315080013400078012814D11748007850B1144800F0E5
S31508001350C7FD00201349087014490870144908800D
S3150800136002E001200F49087001200F49087014E0B7
S31508001370022C08D10948007828B900F06FFB012033
S315080013800949087009E0032C07D10448007820B9F8
S3150800139000F052FB01200449087010BDE40000204B
S315080013A0E5000020EB000020EC000020ED00002006
S315080013B00001002008B50AE09DF80000442803D083
S315080013C09DF80000642802D1012004490870684687
S315080013D003F0E6FD0028EFD108BD00000201002059
S315080013E010B502F0F7FC00F08BFA10B911A003F063
S315080013F039FE02F091FB00F07BFE144800F022FE55
S315080014000020134908701349087013490870012011
S3150800141012490870002012490870124908601249DA
S315080014200860124908601249086012490880124982
S31508001430087010BD446973706C617920696E6974AF
S31508001440206661696C65642E0D0A0000E5000020BF
S31508001450E4000020EA000020EB000020EC00002059
S31508001460ED000020F0000020F4000020F800002025
S31508001470FC000020000100200201002030B5B9B0B0
S315080014800446208AE189A289638ACDE90932CDE931
S315080014900B10A28A607FE38A2168CDE90530CDE981
S315080014A00721A07F228B618BA368CDE90131CDE9A5
S315080014B00320606808A3094AB02100900DA8FEF72A
S315080014C065FF0DA8FFF792F985B229460DA803F026
S315080014D09BFD39B030BD000044445300D46B00086E
S315080014E02DE9F047CCB03F48007810B103F0C8FDAD
S315080014F010B14CB0BDE8F0873B4800F035FD40B967
S315080015000C213A4803F080FD10B1002035490870D7
S31508001510EFE74AA800F096FD42A800F09DFD9DF968
S315080015202C0100F5DC701FFA80F8449800EB58008F
S31508001530B0FBF8F085B22C48B0F80006A84202DAEB
S315080015402948B0F800562848B0F80006401B1FFA8C
S3150800155080F9CDE9008526A24FF4807102A8449B44
S31508001560FEF714FF0446002627E009EB060CDFF811
S3150800157078A03AF81C3006F1010CAC4502D20FF2FD
S315080015808C0C01E00FF27C0C62461FFA84FCCCF549
S3150800159080710DF1080C0CEB0400FEF7F7FE074608
S315080015A0002F05DBB8B2A1B2C1F58071884201D31C
S315080015B0002409E03C44701C86B2AE4204DA002CD2
S315080015C002DDA0B2FF28D0D900BF002C07DDA1B2EA
S315080015D002A803F019FD10B100200249087000BFE7
S315080015E087E7000002010020701F0020816B0008B9
S315080015F04144435F58312C46533D25752C463D25BD
S31508001600752C4E3D25750D0A0000000025752C0029
S31508001610F0B58DB066480068401C65490860FFF75C
S31508001620C9FE02F01DFC074602F050FA0446384689
S31508001630FFF768FE002C3FD05E480078B0B9204618
S3150800164000F082F988B901A800F0FCFC9DF90800B1
S31508001650204405B215F11E0F01DA6FF01D051E2D87
S3150800166000DD1E2568B200F0E5FF22E0524800784A
S3150800167018B12046FFF7CCFD1BE008E04F4800787C
S31508001680401C00F003004D490870601E04B2002C8F
S31508001690F4DC0CE04948007808B9032003E0474821
S315080016A00078401EC0B245490870601C04B2002C80
S315080016B0F0DB01204249087005A800F0CDFC41493D
S315080016C005980968884206D03E49059808600020B2
S315080016D03D4908800AE03C4800884FF6FF71884279
S315080016E004D239480088401C37490880FFF7F8FEBD
S315080016F02F48006835490968401AB0F57A7F07D33C
S3150800170005A8FFF7BBFE18B1294800682F490860ED
S315080017102B48007850B927480078002845D1244836
S3150800172000682B490968401A14283ED321480078D6
S31508001730012807D12048027820480178254800F07A
S31508001740A5F92BE09DF8300030B11F480088B0F5A8
S31508001750FA7F01D2012000E00020054665B100F0BD
S3150800176065F910B91C48007830B91C4800F0FCFB34
S3150800177010B101201849087025B11748007808B13A
S31508001780012000E00020064603A800F05BFC334673
S31508001790124A05A903A800F02FFA00BF002008493D
S315080017A00870034800680A4908600DB0F0BD0000DB
S315080017B0F0000020E4000020EB000020EA000020F2
S315080017C0EC000020FC00002000010020F8000020AA
S315080017D0F4000020E5000020ED000020701F002026
S315080017E002460F2A01DA102901D300207047034860
S315080017F000EB421030F81100F8E7000060690008B5
S315080018002DE9FC4707460C46154604EB4400C6B2CC
S315080018100A20B6FBF0F100FB1168B6FBF0F90DB132
S3150800182006A000E006A04B4606A20621CDE90080E8
S315080018303846FEF7ABFDBDE8FC8700002A0000002D
S315080018400000000025752E2575562573000000003A
S31508001850F8B505460C46002C02DA6042C0B200E034
S31508001860E0B206460096002C01DA2D2000E02B2077
S31508001870034603A209212846FEF788FDF8BD0000A5
S3150800188044463A256325303275485A00F8B5064667
S315080018900C4615460DB106A000E006A0C4EB0413DD
S315080018A005A2092100903046FEF770FDF8BD00003C
S315080018B02A000000000000002575444547257300EE
S315080018C0B0B1012804D0022807D003280FD109E0B7
S315080018D00A230B700B2313700FE00C230B700D23D8
S315080018E013700AE00E230B700223137005E000BF85
S315080018F008230B700923137000BF00BF7047000050
S3150800190010B5FFF75BFC08B1002010BD0020FFF7FB
S31508001910B5FA0948FFF770FC00214FF6FF7001F091
S31508001920B1FD0020054908707F200549087002208E
S31508001930044908700120E8E7080000200401002097
S31508001940050100200601002010B504462E4800783F
S3150800195008B9002010BD0CB90120FBE72A48007819
S3150800196001280ED12948007808B1032000E0042098
S31508001970024621462648007801F08EFD2449087063
S3150800198038E021480078022808D103222146214858
S31508001990007801F081FD1F4908702BE01A4800788D
S315080019A0032808D1052221461B48007801F074FD5A
S315080019B0194908701EE014480078042812D102223A
S315080019C021461248007801F067FD1049087008465C
S315080019D0007878B10E48007803280BD300200C490C
S315080019E0087007E0032221460C48007801F054FDF0
S315080019F00A49087000200A49087001200949087038
S31508001A000949087000BFA5E7070100200B0100205F
S31508001A1008010020090100200A0100200C0100200D
S31508001A20040100200E0100200F0100200148007863
S31508001A30704700000D01002006480078401C06216A
S31508001A40B0FBF1F201FB12000249087001200249BD
S31508001A5008707047070100200E010020084800782A
S31508001A6008B9012000E00020054908700120054951
S31508001A7008700348007810B10120034908707047C0
S31508001A800D0100200E0100200F01002070B588B05E
S31508001A9004460E46154650480078022805D0002010
S31508001AA0FFF7ECF902204C4908704C48FFF7A4FBF5
S31508001AB0A178002206A8FFF7A3FEE178002203A872
S31508001AC0FFF7E4FE00204FF6FF7101230246CDE939
S31508001AD000100621662000F0E9FF00214FF6FF708E
S31508001AE001F0D0FC3EA20E21A82001F027F9002023
S31508001AF04FF6FF7101230246CDE900100621DC20CE
S31508001B0000F0D4FF37A20E214FF48F7001F016F9BA
S31508001B1000204FF6FF7103230222CDE900103C2175
S31508001B20082000F0C3FF00204FF6FF7105230422AA
S31508001B30CDE900107821082000F0B8FF00204FF604
S31508001B40FF7107230622CDE90010B421082000F012
S31508001B50ADFF2078362358223146CDE9000500200E
S31508001B6001F0F8F860783623CE223146CDE9000533
S31508001B70012001F0EFF806A8682172235822CDE962
S31508001B80010500913146022001F098F8002016A1BF
S31508001B9068227223CDE900210290CE223146042024
S31508001BA001F08CF803A86821AE235822CDE9010577
S31508001BB000913146032001F081F800200CA168222B
S31508001BC0AE23CDE900210290CE223146042001F051
S31508001BD075F808B070BD0000040100200800002058
S31508001BE03100000032000000332E3356000000009A
S31508001BF030444547000000002DE9F04F87B00646FF
S31508001C0015461C464FF0000940F6FF700690401036
S31508001C10059024B1B5F8000601F0C0F900E00020EF
S31508001C2007464FF000089C480078012801D001209B
S31508001C3000E000208246BCB198480078022805D109
S31508001C4005F500794FF6E07005900DE093480078A9
S31508001C50032808D105F5806941F6FE7006904FF411
S31508001C60FC60059000E0A946BAF1000F69D0002093
S31508001C70FFF704F90120884908707F208849087011
S31508001C80022088490870012087490870874908702A
S31508001C9087480078B0B34FF2DE70FFF7B3FAB22385
S31508001CA01A462E214720FFF717FA8248FFF7A4FAAB
S31508001CB0002140F2FF7001F0E5FB7F48774909787B
S31508001CC050F821307DA2082103A8FEF75FFB03AA7E
S31508001CD0D6214FF48A7001F031F800214FF6E070F2
S31508001CE001F0D0FB77486D49097850F8213076A283
S31508001CF0082101A8FEF74AFB01AA3021082001F0B5
S31508001D001DF81EE0FFE76548007878B970A26221E1
S31508001D10242001F061F86FA2A621682001F05CF882
S31508001D206DA2EA21AC2001F057F80AE04FF2DE7006
S31508001D30FFF768FA7A2340F21B122E212420FFF7B8
S31508001D40CBF996F90400564991F90010884206D154
S31508001D5054480078A04202D15348007818B1214669
S31508001D60304600F0BDFE5D48007828B94F48007837
S31508001D7010B907B0BDE8F08F4D48007868B124B1B6
S31508001D80B5F80006C01B80B200E000208046424637
S31508001D902146284601F012F978E04048007820B933
S31508001DA00CB1284602E0002000E0484604903B4873
S31508001DB00078032802D141F6FE7001E040F6FF7074
S31508001DC083463CB1B5F800165B463A46049801F0DE
S31508001DD09DF800E00020804630480078C8BB012006
S31508001DE040F2FF712422CDE90021029014B1B5F822
S31508001DF0002600E0002211460CB12A4600E0002227
S31508001E00104640F6FF73424601F088FA01204FF665
S31508001E10E0716822CDE90021029014B1B5F80026D8
S31508001E2000E00022114614B105F5007200E0002218
S31508001E30104640F6FF73424601F070FA01204FF44F
S31508001E40FC61AC22CDE9002102901CB1B5F8002650
S31508001E5001E00DE00022114614B105F5806200E0AC
S31508001E600022104641F6FE73424601F057FA0CE08E
S31508001E700598009014B1B5F8000600E00020014668
S31508001E8042464846069B01F07BF900BF00200749F9
S31508001E90087000BF6DE7000004010020080100205B
S31508001EA005010020060100200E0100200F01002078
S31508001EB00B0100200000002064010020583A257319
S31508001EC00000000070010020593A25730000000048
S31508001ED05831000058320000580000000D0100205B
S31508001EE010B5044604B910BD00F008FC0A4821687C
S31508001EF001602179017100F011F800F055FC00F03D
S31508001F005FFB002000F072F8802000F06FF800F008
S31508001F109DFB00BFE7E700006C000020017803295D
S31508001F2001DD002101704178032901DD002141709E
S31508001F30817809B90121817081780B2901D90B2192
S31508001F408170C1780C2901D90C21C17090F904104F
S31508001F5011F11E0F01DAE221017190F904101E2910
S31508001F6001DD1E210171704770B5054615B11C4883
S31508001F70007808B9002070BD4FF48071194800F048
S31508001F808BFC0646B6F5807F01D00020F3E70024D7
S31508001F901BE004EB4400134931F8100025F814003F
S31508001FA004EB440001EB4000418805F5007020F879
S31508001FB0141004EB44000B4901EB4000818805F539
S31508001FC0806020F81410601C84B2B442E1DBA5F8E6
S31508001FD0006605480068C5F804060120CBE700003E
S31508001FE07E000020EE0B00207400002070B5054628
S31508001FF010488078C0EB00300B21B0FBF1F086B2B8
S31508002000002414E00C4A1268110E0A4A1078324667
S3150800201000F09EFB2919094A22F8110006480068B3
S3150800202007490968084404490860601C84B2802C82
S31508002030E8D370BD6C00002084000020EE04002068
S315080020408800002020B103490A68026009790171F5
S31508002050704700006C00002010B5044604B910BD96
S3150800206018480068206018480068606017480068CB
S31508002070A06017480088A08116480088E0811648A5
S315080020800088208200F05CFC608214480088A082E8
S31508002090134801F083FBE0824FF08040808D208357
S315080020A01048808D60831048007820770F480078A4
S315080020B060774FF08040008AC0F38000A07700BFA9
S315080020C0CDE700007400002094000020980000204E
S315080020D0780000207A0000207C0000208000002084
S315080020E008000240001000407E0000207F0000200B
S315080020F008B501214FF4017002F042FA01214807A0
S3150800210002F02EFA3120ADF8000000208DF8030009
S3150800211003208DF802006946124801F07BFD022073
S31508002120ADF8000004208DF8030069460D4801F05B
S3150800213071FD00F021FB0C48FFF7F0FE00F03AF9BC
S3150800214000F03EFA0020FFF751FF8020FFF74EFF10
S3150800215000F0AEF800F088F800F008F800F076FA1B
S3150800216008BD0000000801406C00002010B586B0CC
S315080021704FF4004002F0D8F93748FEF783FD01A86E
S31508002180FEF773FE002001908DF808008DF809000F
S315080021904FF4602003900020049001208DF814006D
S315080021A001A92D48FEF7C8FD0523012200212A486A
S315080021B0FEF7EAFD01212848FEF74EFD2648FEF700
S315080021C03FFE00BF2448FEF7ADFD0028FAD122489D
S315080021D0FEF746FE00BF2048FEF78DFD0028FAD11F
S315080021E002211D48FEF735FD01211B48FEF72DFE8D
S315080021F01A4C00E0641E02211748FEF78AFD08B94A
S31508002200002CF7D144B11448FEF77FFD1449088025
S3150800221001201449087004E000201149088011497A
S31508002220087000210C48FEF75BFD4FF4C0200390B0
S3150800223001A90948FEF780FD052301220021064869
S31508002240FEF7A2FD01210448FEF711FD012102480F
S31508002250FEF746FD06B010BD00240140A086010029
S31508002260800000207F0000201FB5684601F06CF949
S3150800227004200090002001900390694601F04AF975
S31508002280242000906946102001F044F9012100201D
S3150800229001F02AF90121102001F026F90121002078
S315080022A001F00EF90121102001F00AF91FBD000006
S315080022B000B58DB00121032002F042F902A801F011
S315080022C0B0FA102004900020069080200790400065
S315080022D008908000099020200A9000020B900020A8
S315080022E00C902D4801F0B4F92C4802902C48039024
S315080022F04FF48070059002A9274801F072FA01226E
S315080023000621254801F064FA2348143001F0A0F9A3
S3150800231022480C300290234803904FF480700590B1
S3150800232002A91D48143001F05CFA1F4801F090F923
S315080023301E4802901E480390002004904FF48070B7
S3150800234005904FF440500B9002A9174801F049FA3E
S3150800235001220621144801F03BFA0B208DF80400EF
S3150800236000208DF805008DF8060001208DF807007D
S3150800237001A802F095F83A208DF8040001208DF89E
S31508002380050000208DF8060001208DF8070001A839
S3150800239002F086F80DB000BD300402400874004013
S315080023A0EE040020EE060020080002404C240140FE
S315080023B0EE0800202DE9F04188B03748006800F59E
S315080023C00050840B601E86B233480068B0FBF4F0F8
S315080023D032490860304800684DF6BA310844490069
S315080023E0B0FBF1F52E48056000F0DEF900210A463B
S315080023F04FF4DC73A4FB020C01FB01C104FB0313BD
S31508002400254909684908471843F10001224800236D
S3150800241002683846FDF742FF22490860012111206B
S3150800242002F09EF805A802F0EFFC0020ADF81400B3
S31508002430ADF81600ADF81A00ADF8186005A94FF00A
S31508002440804002F08FFC2021480602F054FC01A8C7
S3150800245002F047FC6020ADF804000120ADF8060044
S31508002460701C4008ADF80A0001A94FF0804002F040
S31508002470D9FB0821C80602F027FC681E80B2ADF811
S31508002480180005A9084802F06DFC2021064802F04C
S3150800249032FC08B0BDE8F0819400002098000020C6
S315080024A09C00002090000020001000402DE9FC410F
S315080024B0054640F6FF774FF00008012600243BE06A
S315080024C02819344931F81000ADF80000324A12686C
S315080024D0110E324A507840F6FF7200F039F9ADF81D
S315080024E00200BDF80000BDF80210084480B2ADF83D
S315080024F00400294800682A490968084426490860EA
S31508002500BDF80000B84201DABDF80070BDF8000059
S31508002510404501DDBDF80080BDF80400B04201DD8C
S31508002520BDF80460BDF804001E4921F81400684689
S3150800253000F00CFA601C84B2802CC1D31A480088BB
S31508002540864201DD18480680002412E0154830F856
S315080025501400C0EB00301449098800EB51001249F9
S315080025600988B0FBF1F02919104A22F81100601CFD
S3150800257084B2802CEAD30E4807800E48A0F8008063
S315080025800D480068401C0C49086001200B4908707A
S31508002590BDE8FC81EE0800208C0000206C000020BD
S315080025A090000020EE0A00207C000020EE060020A5
S315080025B0780000207A000020740000207E000020A9
S315080025C070B500F0F1F94FF400711148FEF772F991
S315080025D01048C0780F21A0FB015100244FF4B472B3
S315080025E0234620462946FDF759FE0B490860002078
S315080025F00A4908600A4908600A4908800A490880A1
S3150800260001200A49088000200949087070BD0000A9
S31508002610EE0600206C000020840000208C000020BC
S3150800262074000020780000207A0000207C0000203A
S315080026307E00002010B5044603480471FFF76EFCBF
S3150800264000F0B2F810BD00006C00002010B50120A3
S3150800265000F0D6FF244800F0D3FF4FF0102000F01A
S31508002660CFFF4FF48071214801F0D9F84FF48071FB
S315080026701F4801F0D4F84FF480711D48143001F05A
S31508002680CEF801211B48FEF7F2FA01211948FEF798
S3150800269027FB0121154800F0CFFF0121144800F05F
S315080026A0CBFF01211248143000F0C6FF00214FF07D
S315080026B0804002F029FB00210F4802F025FB052186
S315080026C0880702F019FA0121880702F045FA052160
S315080026D0880702F011FA0121880702F010FA012191
S315080026E0054802F00CFA10BD00010010080002406F
S315080026F030040240002401400010004010B50021BB
S315080027004FF0804002F0FBF900210D4802F0F7F97E
S3150800271000210C4800F090FF00210B4800F08CFFC8
S3150800272000210948143000F087FF012000F068FFF7
S31508002730064800F065FF4FF0102000F061FF10BD5D
S31508002740001000400800024030040240000100105A
S315080027502DE9F04105460E4614463146284600F056
S315080027604BF8074607FB04F0FE2190FBF1F000F555
S31508002770006080B2BDE8F08100B585B002F01AF8B5
S31508002780684601F01DFF074902980860DDE9011057
S31508002790884204D00348006840000249086005B032
S315080027A000BD0000940000202DE9F0410E4890F984
S315080027B0040000F5DC7400210C480068A1FB002722
S315080027C004FB007001FB010009490968490855180E
S315080027D040F100010648002302682846FDF75EFD21
S315080027E004490860BDE8F0816C0000209C000020C8
S315080027F0940000208800002030B504467CB3012CE4
S3150800280004D0022C1AD0032C28D120E0802908D223
S31508002810C1EBC11040007F25B0FBF5F07F3800B250
S3150800282030BDA1F1800080B2C0EBC01040007F250A
S31508002830B0FBF5F0C0F17F0000B2F1E7C1EBC110C3
S315080028404000FF25B0FBF5F07F3800B2E8E78029A5
S3150800285001D27F20E4E76FF07E00E1E700BF8B112D
S3150800286001F03F0213B90B48805CD9E7012B04D16C
S31508002870C2F14000074D285CD2E7022B03D1054878
S31508002880805C4042CCE7C2F14000024D285C4042E1
S31508002890C6E70000406B00082DE9F04302460B46E8
S315080028A002B113B90020BDE8F08300243CE0DFF84C
S315080028B080C0DCF80060DFF87CC0BCF80070BB4262
S315080028C001DA9C4600E0BC466046DFF86CC0BCF8FE
S315080028D000C0ACEB000CCCF30805002119E001EBB5
S315080028E0410C02EB4C0C05EB0108C8F3080808EB91
S315080028F04808DFF8489009EB4808D8F80090CCF863
S315080029000090B8F80480ACF8048001F1010C1FFAB5
S315080029108CF18142E3DBDFF818C0DCF800C06645BD
S3150800292000D1C0E7601CC4B2032CC0D30020BAE7AC
S31508002930A4000020A2000020A0000020EE11002024
S315080029400148008870470000A200002000B97047BF
S315080029501149098801EB4101104A02EB410102685D
S315080029600A6082888A800C490988491CC1F30801D3
S31508002970094A11800A490988B1F5007F04D2084935
S315080029800988491C064A118006490968491C054AEE
S31508002990116000BFDBE70000A0000020EE11002058
S315080029A0A2000020A400002000200549088005494F
S315080029B0088005480068401C034908607047000005
S315080029C0A0000020A2000020A400002070B5044644
S315080029D00A46501C4508611B1248007828B9084663
S315080029E0CE1701EB9676B11013E00E480078012851
S315080029F004D1084601EBD07671100AE00948007840
S31508002A00032801D1490004E006480078042800D1CB
S31508002A1089006B18002B00DA0023934200DD134669
S31508002A2098B270BD0A0100202DE9F84F8046894604
S31508002A3017469A4600242AE021463846FEF7D0FE75
S31508002A40834600261FE0002519E0C5F10F03012281
S31508002A509A4002EA0B020AB1524600E00A9A114667
S31508002A6006EB4402520102EB450290B20E4A22F8E6
S31508002A7010101346421C23F81210681CC5B2102DFC
S31508002A80E3D3701CC6B2022EDDD3601CC4B2102C70
S31508002A90D2D3054820231A46494600904046FEF7F9
S31508002AA003FBBDE8F88F0000782500202DE9F843E0
S31508002AB004460F4690461D46DDE908964B464246B3
S31508002AC0394620460096FFF7AFFF04F1200188B289
S31508002AD04B462A4639460096FFF7A6FFBDE8F88317
S31508002AE070B59EB005460C4695F904101BA8FEF76E
S31508002AF0AFFE45480078C8B10CB144A100E044A136
S31508002B001BAA4548454B1B7850F82300CDE90121FF
S31508002B1000904348007808B142A000E042A003466E
S31508002B2043A2282111A8FDF731FC17E00CB137A202
S31508002B3000E037A21BA94448384B1B7850F82300FD
S31508002B408DE807003648007808B136A000E036A0C0
S31508002B5003463EA2282111A8FDF718FC4148424920
S31508002B60097850F821102848007808B13FA300E0FA
S31508002B703FA34048404A127850F822203F4806783A
S31508002B800120B0408DE80D0003911F48007828B158
S31508002B903B480078012801D13AA004E03B4838496F
S31508002BA0097850F82100034639A2302105A8FDF717
S31508002BB0EDFB0020FEF726FB20234FF4A072002130
S31508002BC00846FEF7D3FA3948FEF716FB00214FF6FA
S31508002BD0FF7000F057FC11AA0221042000F0AEF89D
S31508002BE000214FF6E07000F04DFC05AA11210420E3
S31508002BF000F0A4F828792E4908702E4804700020A1
S31508002C002D4908701EB070BD0B01002041444300D9
S31508002C105741495400000000200100200801002007
S31508002C200D01002052554E0053544F50000000002D
S31508002C3053434F504520257320504149523A257336
S31508002C4020257320257300001001002053434F50A0
S31508002C50452025732043483A25732025732025737C
S31508002C6000000000440100200C0100205859000013
S31508002C7059540000500100200A01002009010020D3
S31508002C800701002050414952000000002C01002095
S31508002C9053454C3A257320543A58257520473A250A
S31508002CA0732025732054523A257300000000002033
S31508002CB005010020060100200E0100202DE9F05F25
S31508002CC006460F4614461D46DDE90BABDDF828809F
S31508002CD0BE4201D11F2000E0002081464846FEF78B
S31508002CE091FA2C23424629462046FEF73FFA4946E2
S31508002CF04FF6FF7000F0C6FB05F10C0291B204F125
S31508002D000A0290B2524600F019F8BE4211D1BBF140
S31508002D10000F0ED049464FF6E07000F0B3FB05F100
S31508002D200C0291B204EB0802103A90B202A200F02B
S31508002D3005F8BDE8F09F00002A00000070B50446BB
S31508002D400D4616460323324629462046FEF7CAF89C
S31508002D5070BD00002DE9FF4706460F4614461D467E
S31508002D60DDE90C9ABE4201D11F2000E00020804612
S31508002D7002AA03A94846FEF7A3FD4046FEF742FA13
S31508002D802C23682229462046FEF7F0F94FF6FF70F5
S31508002D90AA1D91B204F10802CDE9000890B29DF887
S31508002DA008309DF80C20FFF781FEBE4210D1BAF11B
S31508002DB0000F0DD041464FF6E07000F063FB05F1B9
S31508002DC00E0291B204F1540290B202A2FFF7B6FFC6
S31508002DD0BDE8FF872A00000070B504460D46164672
S31508002DE00E48FEF709FA00214FF6FF7000F04AFB7D
S31508002DF004F1150081B232460420FFF79FFF4FF217
S31508002E00DE70FEF7FFF9281B401C83B24FF48D7263
S31508002E1021462420FEF760F970BD00000800002056
S31508002E202DE9FE4FDDF830C005460C46824202DB2E
S31508002E30A2EB000901E0A0EB0209C846904202DABB
S31508002E404FF0010901E04FF0FF39CDF808908B42A9
S31508002E5002DBA3EB010901E0A1EB0309CDF804901D
S31508002E60DDF80490C9F100090FFA89F6994202DAE9
S31508002E704FF0010901E04FF0FF39CDF8009008EB5B
S31508002E8006090FFA89F700BF0FFA8CF94C4518DBCB
S31508002E90DDF83490E1440FFA89F9A14511DD40F2D5
S31508002EA0FF791FFA85FA0FFA8CFBA4EB0B0B4FF090
S31508002EB0570E0BFB0EFB0AEB4B0ADFF84CB02BF850
S31508002EC01A90954202D19C4200D11AE04FEA470A6D
S31508002ED00FFA8AF9B14508DB07EB060A0FFA8AF7F3
S31508002EE0DDF808A0AA440FFA8AF5C14508DC07EB05
S31508002EF0080A0FFA8AF7DDF800A0A2440FFA8AF446
S31508002F00C2E700BFBDE8FE8F782500202DE9F04F07
S31508002F1005460C469C460CF10100C0F34F0625B148
S31508002F20A24202DA1C48007838B9944203DDA01A96
S31508002F3080B2BDE8F08F0020FBE7A01A87B293089D
S31508002F400BB1184600E00120834607EB030841460B
S31508002F501EE0481E35F8109035F811A00E48007886
S31508002F60012806D1B14502DAB24500DB08E00020A7
S31508002F7006E0B14503DDB24501DC012000E0002092
S31508002F808646BEF1000F02D0C81A80B2D1E7491EA4
S31508002F905945DEDA3846CCE70C0100200146064AD8
S31508002FA0127841FA02F0022805D2022901D20A460D
S31508002FB000E0022210467047090100202DE9F74F6C
S31508002FC088B004469246079404F50070069040F6C9
S31508002FD0FF7005900490099810B1B4F8000600E057
S31508002FE000200390002762480078012806D104F5DE
S31508002FF08060069041F6FE7004900CE05C4800780C
S31508003000022808D104F50070079004F58060069040
S3150800301041F6FE7004900998B0B30398824533DAF6
S315080030200398A0EB0A0087B2B7F5807F01D94FF461
S315080030308077002625E00AEB06001FFA80F8079934
S3150800304031F818000599FFF7C1FC8146069931F851
S3150800305018000499FFF7BAFC8346AD2009FB00F077
S315080030600599B0FBF1F043498855AD200BFB00F0FC
S315080030700499B0FBF1F0C0F1AD003F498855701CCA
S3150800308086B2BE42D7DB00BF00256CE0C5F1AE00B4
S315080030901FFA80FBBBF13B0F01D94FF03B0B4FF0FA
S315080030A0000832E005EB080188B24FF0000925E078
S315080030B01D22B9FBF2F302FB139252B11D22B0FB9B
S315080030C0F2F302FB130222B1B9F1570F01D05728C8
S315080030D001D1012200E00022114611B14FF2DE7340
S315080030E000E00023572208FB02F209EB4202234EB6
S315080030F026F8123009F101011FFA81F9B9F1AE0F6C
S31508003100D6D308F101001FFA80F8D845CADB022F8A
S315080031101CD3012617E0DFF860C0CDE9005B1CF878
S315080031200630DFF850C01CF80620A6F1010CDFF8BF
S3150800313048E01EF80C10DFF83CE01EF80C00FFF71C
S315080031406FFE701C86B2BE42E5DB00BF0B480090DE
S3150800315005F1300081B25B46AE224920FDF7A4FF97
S3150800316005F13B0085B2AE2D90D30BB0BDE8F08FCC
S315080031700801002029A7002012A600207825002093
S315080031802DE9FE4F06468B4691461F46CB4503DD85
S31508003190ABEB090080B200E00020029066B302980B
S315080031A0022829D3002424E00298401E60434FF4E5
S315080031B08B71B0FBF1F048441FFA80F836F8180016
S315080031C0B84201DD384601E036F81800824639462D
S315080031D05046FFF7FBFB824675200AFB00F000EB22
S315080031E05700B0FBF7F0C0F175004A490855601C56
S315080031F084B2B4F58B7FD7D9002586E0C5F1760071
S315080032001FFA80FABAF13B0F01D94FF03B0A4FF08B
S3150800321000082DE005EB080188B2002421E01C22F5
S31508003220B4FBF2F302FB13423AB11D22B0FBF2F3F0
S3150800323002FB13020AB13B2801D1012200E0002259
S31508003240114611B14FF2DE7200E00022C8EB4813B6
S3150800325003EBC3032344DFF8C0C02CF81320611C1A
S315080032608CB2B4F58B7FDAD908F101001FFA80F821
S31508003270D045CFDBDEB30298022838D3002433E0EA
S3150800328014B9244B1B5D04E0631EDFF888C01CF8E4
S3150800329003301A461F4B195D8A4201DA134600E0CD
S315080032A00B4601938A4201DD134600E00B46009364
S315080032B0019814E0A84210DB05EB0A039BB283428F
S315080032C00BDDA0EB050CCCEB4C1C0CEBCC0CA44496
S315080032D0DFF844E00C9B2EF81C30431C98B2009B88
S315080032E09842E7DD601C84B2B4F58B7FC8D90A48DA
S315080032F0009005F1300081B2534640F2171226209D
S31508003300FDF7D2FE05F13B0085B2762DFFF476AFC8
S31508003310BDE8FE8F12A60020782500202DE9FE4F75
S3150800332006460F4690461D46DDF830A044F24D008D
S3150800333002904FF0000905E00020504921F81900D5
S3150800334009F1010902988145F6D3002409E04FF2F4
S31508003350DE7041F69B712144484A22F81100601C30
S3150800336084B2B4F58B7FF2D91EB117B1B84500DA2D
S3150800337065B9424800900AF1020081B23B2340F247
S3150800338017122620FDF790FEBDE8FE8FA7EB080072
S3150800339080B20190002426E00198401E60434FF455
S315080033A08B71B0FBF1F040441FFA80FB36F81B0026
S315080033B0A84201DD284601E036F81B0000900E9869
S315080033C020B129460098FFF701FB00903A210098A2
S315080033D0484300EB5500B0FBF5F0C0F13A00284928
S315080033E00855601C84B2B4F58B7FD5D9002434E027
S315080033F024B9DFF88CC01CF804C005E0A4F1010C60
S31508003400DFF87CB01BF80CC06246DFF874C01CF805
S3150800341004108A4201DA944600E08C4663468A42E2
S3150800342001DD944600E08C46CDF800C018460EE053
S31508003430C0EB401B0BEBCB0BA344DFF840E0DDF8F9
S3150800344034C02EF81BC000F1010C0CF0FF00DDF8AB
S3150800345000C06045ECDD601C84B2B4F58B7FC7D92B
S31508003460064800900AF1020081B23B2340F2171287
S315080034702620FDF719FE00BF86E700007825002004
S3150800348012A6002070B505460C462846FDF7BAFE7A
S315080034902046FDF7ABFE70BD10B503460C4618195D
S315080034A001B201E0881801B20029FBDB01E0881AA5
S315080034B001B29142FBDAC8B210BD00BFFEE70000B8
S315080034C039B1084A1268012383401A43054B1A602A
S315080034D006E0044A1268012383409A43014B1A60A6
S315080034E0704700000074004041B1094A12684FF461
S315080034F0805383401A43064B1A6007E0044A126851
S315080035004FF4805383409A43014B1A60704700007A
S315080035100074004030B5002200230A4C226840F6A9
S31508003520FE748440A243D1E900452C438D682C43A0
S31508003530CD6844EA050303FA00F42243014C2260ED
S3150800354030BD0000007400400021016041608160C8
S31508003550C160704710B5042000F024F928B1042092
S3150800356000F05CF80020FEF7A1FF022000F01AF92F
S3150800357028B1022000F052F88020FEF797FF10BD10
S3150800358010B54FF4005000F00DF950B14FF400504B
S3150800359000F044F800210B4800F04EF800200A49D4
S315080035A008704FF4004000F0FDF850B14FF40040A9
S315080035B000F034F80021034800F03EF800200249E4
S315080035C0087010BD44000240B800002010B50A4833
S315080035D000F0E8F828B1084800F020F80020FEF7C7
S315080035E005FD064800F0DEF828B1044800F016F894
S315080035F08020FEF7FBFC10BD00040010000200103E
S3150800360000F0805111B10349086001E002494860A1
S3150800361070470000040402400000024000F0805198
S3150800362011B10349086001E002494860704700008B
S31508003630040402400000024021B1026842F001027F
S31508003640026004E002684FF6FE731A400260704793
S3150800365001684FF6FE721140016000210160416069
S315080036608160C1604B49884208D14A49083949688E
S3150800367041F00F01474A083A51608AE0454914313A
S31508003680884208D143490839496841F0F001414A5E
S31508003690083A51607DE03F492831884208D13D49C2
S315080036A00839496841F470613A4A083A516070E04D
S315080036B038493C31884208D136490839496841F4C5
S315080036C07041344A083A516063E0324950318842C1
S315080036D008D130490839496841F470212D4A083A19
S315080036E0516056E02B496431884208D12949083986
S315080036F0496841F47001274A083A516049E025496A
S315080037007831884208D123490839496841F07061FF
S31508003710204A083A51603CE01F49884206D1011FF9
S31508003720096841F00F01021F116032E01A4914318D
S31508003730884208D11849091F096841F0F001164A5C
S31508003740121F116025E014492831884208D1124910
S31508003750091F096841F470610F4A121F116018E0C9
S315080037600D493C31884208D10B49091F096841F4C3
S315080037707041094A121F11600BE00749503188420F
S3150800378007D10549091F096841F47021024A121F29
S315080037901160704708000240080402400146486864
S315080037A080B2704701460020002201F0805313B111
S315080037B0054B1A6801E0054B1A6802EA01030BB1CA
S315080037C0012000E00020704700040240000002408B
S315080037D01AB103680B43036002E003688B43036076
S315080037E0704710B50022026847F6F0739A430C6AD0
S315080037F08B6823430C6923434C6923438C69234311
S31508003800CC6923434C6A23438C6A23431A430260D8
S31508003810CB6843600B6883604B68C36010BD41602A
S3150800382070470021016041608160C16001614161AA
S315080038308161C1610162416281627047704700B56A
S31508003840034603E04FF47A7000F005F8181EA3F15A
S315080038500103F7D100BD00EBC001C9004FF0E0221B
S315080038605161002191610521116100BF4FF0E021EE
S31508003870096901F480310029F8D004214FF0E022CB
S31508003880116170472DE9F74F82B092460027B84676
S31508003890B94600250024A3460026002001904C487E
S315080038A08068C5884A488068848805FB04F0362104
S315080038B001EB40004749488005FB04F0362101EB3F
S315080038C040004FF6FF7101EA2040424988803620C1
S315080038D0488108464482201488820846C5822814EE
S315080038E00883E01DC11700EB5171C910C4EBC10173
S315080038F001F0FF0B00BF60E0E01DC11700EB51713E
S31508003900C91001FB07A6C11700EB51710322B2EBE0
S31508003910E10F07D130780004717840EA0120B178C8
S3150800392008430190E01DC11700EB51710222B2EB6A
S31508003930E10F04D17078317840EA01200190E01D4A
S31508003940C11700EB51710122B2EBE10F01D13078BA
S3150800395001904FF000082DE0E81B401E00FB048094
S31508003960362101EB4009A4EB08005844401E01210A
S3150800397001FA00F00199084068B115480078154920
S3150800398001F8090012480088C0F30721114A09F115
S31508003990010011540CE00E4800790E4901F809009F
S315080039A00B488088C0F307210A4A09F1010011541F
S315080039B008F10108A045CFD37F1CAF429CD3054A26
S315080039C0DDE90201FDF7F6FA05B0BDE8F08F000063
S315080039D07C0100208801002010B5202000F018F88E
S315080039E058B10648007828B101200549087000201A
S315080039F002490870202000F005F810BDAD0000202F
S31508003A00AC0000200149086070470000140401401A
S31508003A10014600200022074B1B6803EA0102054BFA
S31508003A2014331B680B4013B10AB1012000E00020D3
S31508003A307047000000040140002123498279002ACA
S31508003A403AD00A46126803689A430B461A600A1D5A
S31508003A50126803689A430B1D1A60027911440A68B2
S31508003A6003681A430A60184A0832126803689A43B8
S31508003A70154B08331A601A1D126803689A43124BCD
S31508003A800C331A604279102A0ED11A1F126803687D
S31508003A901A430D4B08331A601A1D126803681A4335
S31508003AA0094B0C331A600DE00749427911440A683C
S31508003AB003681A430A6005E0027911440A68036834
S31508003AC09A430A60704700000004014070B50F4829
S31508003AD001F044F805B20E480088281A06B20C48C8
S31508003AE005800C480088304400B20A490880B1F9BC
S31508003AF00000C11700EB91718C1006480088A0EBF6
S31508003B00840000B203490880204670BD00040040C6
S31508003B10A8000020AA00002000B587B001210420D3
S31508003B2000F02EFD0121022000F01AFDC020ADF89C
S31508003B30180048208DF81B0003208DF81A0006A9E6
S31508003B40204800F067F803A801F05EF94FF6FF7009
S31508003B50ADF810000020ADF80C00ADF80E0003A972
S31508003B60194801F0FFF8684601F052F80A20ADF846
S31508003B7008000020ADF800006946134800F0F2FF7F
S31508003B800420ADF8000069460F4800F0EBFF00235B
S31508003B901A4603210C4800F0BEFF4FF400410A48BC
S31508003BA001F0B2F8084800F0D9FF00B207490880CA
S31508003BB00020074908800121034800F0A0FF07B04C
S31508003BC000BD00000008014000040040A8000020D5
S31508003BD0AA00002030B500228B071C0F0F2303FA1A
S31508003BE004F20B4B8C1053F824309343084C8D1079
S31508003BF044F8253023468C1053F824308C07240FBC
S31508003C0000FA04F42343024C8D1044F8253030BDE5
S31508003C10080001402DE9F041024600250026002053
S31508003C2000230024002791F803C00CF00F0591F833
S31508003C3003C00CF0100CBCF1000F03D091F802C0C1
S31508003C404CEA050591F800C0BCF1000F31D01468A4
S31508003C5000202BE04FF0010C0CFA00F3B1F800C07D
S31508003C600CEA03069E4220D183004FF00F0C0CFA93
S31508003C7003F7BC4305FA03FC4CEA040491F803C0B5
S31508003C80BCF1280F06D14FF0010C0CFA00FCC2F863
S31508003C9014C00AE091F803C0BCF1480F05D14FF0F3
S31508003CA0010C0CFA00FCC2F810C0401C0828D1D33D
S31508003CB01460B1F800C0BCF1FF0F34DD5468002071
S31508003CC02EE000F1080C4FF0010808FA0CF3B1F8E1
S31508003CD000C00CEA03069E4221D183004FF00F0C68
S31508003CE00CFA03F7BC4305FA03FC4CEA040491F802
S31508003CF003C0BCF1280F05D100F1080C08FA0CF82E
S31508003D00C2F8148091F803C0BCF1480F07D100F13E
S31508003D10080C4FF0010808FA0CF8C2F81080401C8D
S31508003D200828CED35460BDE8F0810000F0B50A46F5
S31508003D30002300240021002500F00046B6F1004FBC
S31508003D4002D11D4EF16901E01B4E7168C0F30345AF
S31508003D5083B200F44016B6F5401F08D121F0706111
S31508003D60154E766826F07066134F7E6012E000F4F2
S31508003D708016B6F5801F06D1032606FA05F4A14378
S31508003D8041F0706106E0460D360103FA06F6B143C6
S31508003D9041F0706122B1460D360103FA06F6314349
S31508003DA000F00046B6F1004F02D1034EF16101E082
S31508003DB0014E7160F0BD000000000140024600207F
S31508003DC093680B400BB1012000E00020704700BF4C
S31508003DD0FEE700001FB50121152000F0D1FB0121E7
S31508003DE01C48FFF7A3FF48208DF80F0003208DF825
S31508003DF00E003020ADF80C0003A91748FFF70AFF9C
S31508003E004FF40040ADF80C0003A91448FFF702FF71
S31508003E1005210220FFF7DEFE2020019000208DF804
S31508003E2008000C208DF8090001208DF80A0001A869
S31508003E30FFF702FE17208DF8000002208DF801001A
S31508003E4000208DF8020001208DF80300684600F076
S31508003E5027FB1FBD0002300000100140000801408A
S31508003E6070B54FF400412948FFF7A8FF012800D193
S31508003E7000E00020044610212548FFF79FFF01288F
S31508003E8000D100E00020054620212148FFF796FFD3
S31508003E90012801D11F4908701F48007820B1002069
S31508003EA01D490870012070BD1C48007844EA40008E
S31508003EB01A4908700846007838B91948007820B9B0
S31508003EC00120174908700220EDE714480078FF28FA
S31508003ED002D10020124908701248007845EA4000CD
S31508003EE0104908700846007838B90F48007820B994
S31508003EF001200D4908700320D5E70A480078FF28F5
S31508003F0002D10020084908700020CCE700080140CB
S31508003F1000100140AD000020AC000020AE000020DB
S31508003F20AF000020B0000020B100002010B5044604
S31508003F302046FFF784FC10BD18B10121034A116021
S31508003F4002E00021014A116070470000A8012242E0
S31508003F5000BF011EA0F10100FBD1704710B52D4826
S31508003F60806940F038002B49886101202A49086099
S31508003F702A48006820F4704040F400502749086039
S31508003F8001202749C1F8A8012648406820F4706036
S31508003F9040F4007023494860012023490860091F3E
S31508003FA00860091F08601E49C1F898011D48406845
S31508003FB020F0F00040F030001A4948600846406892
S31508003FC020F00F00C01C48600846006820F07040CA
S31508003FD040F0405008600846006820F0706040F0E5
S31508003FE0407008604FF0333010490860091D0860BA
S31508003FF00120FFF79BFF00200D49C1F88C01012025
S31508004000FFF794FF01200A49C1F88C01FFF78EFFDC
S3150800401010BD0000001002408C81224200140140AD
S315080040200000224200100140A4012242000C014077
S31508004030008022427CB506460C46154600204E49AD
S3150800404008604E49C1F8A0014D48068000884D49D0
S31508004050086000204849083908600720FFF778FFFC
S315080040600120454908390860091D08604FF04430A9
S3150800407044490C390860091D08600AE000203E49D9
S315080040800C3908601120FFF763FF01203B49C1F88E
S315080040909801181EA3F10103F0D15DE0002036490E
S315080040A00C3908601120FFF753FF3648001F0068D7
S315080040B03349088008460088ADF8000001202F49DA
S315080040C0C1F8980100202C490C3908601120FFF727
S315080040D03FFF2C48001F00682949088008460088C9
S315080040E0ADF80200012024490C3908600020086058
S315080040F01120FFF72DFF2348001F0068204908807C
S3150800410008460088ADF8040001201C49C1F898014A
S315080041109DF8010000F0F80000029DF8001001F07B
S31508004120FC0140EAC1009DF8031040EAE100208046
S31508004130A41C8DB19DF8020000F0F80000029DF85D
S31508004140051001F0FC0140EAC1009DF8041040EAA0
S31508004150E1002080A41C6D1E281EA5F101059DD135
S315080041600120054908604FF0333006490C390860CC
S31508004170091D08607CBD0000A401224200002242FD
S31508004180680000200C0C0140F0B505460C461646A2
S315080041901F460020284908602849C1F8A001284878
S315080041A005800088274908600020234908390860E7
S315080041B00720FFF7CDFE01201F4908390860091DB1
S315080041C008604FF044301F490C390860091D086023
S315080041D00AE0002018490C3908601120FFF7B8FEDC
S315080041E001201649C1F89801381EA7F10107F0D138
S315080041F013E0002010490C3908601120FFF7A8FECB
S315080042001048001F00680E490880084603880120E8
S315080042100A49C1F898012370641C301EA6F10106EC
S31508004220E7D10120044908604FF0333005490C39BD
S315080042300860091D0860F0BDA40122420000224260
S31508004240680000200C0C014000B5034600200D490B
S3150800425008600D49C1F8A0010C48038000880C4984
S31508004260086000200749083908600720FFF770FE34
S315080042700120044908390860091D08600249C1F887
S31508004280A40100BDA40122420000224268000020C9
S315080042900C0C014030B503460C461546002018495B
S315080042A008601849C1F8A001174803800088174913
S315080042B0086000201249083908600720FFF748FE01
S315080042C001200F4908390860091D08600FE00E48EB
S315080042D0048000880D4908600020094908390860EB
S315080042E00720FFF735FE01200649C1F89C01281E64
S315080042F0A5F10105EBD101200149086030BD000098
S31508004300A401224200002242680000200C0C014051
S3150800431030B504460B461546002019490860194968
S31508004320C1F8A001184804800088184908600020D0
S315080043301349083908600720FFF70AFE01201049CB
S3150800434008390860091D086012E018880E490880B7
S31508004350084600880D4908600020094908390860A0
S315080043600720FFF7F5FD01200649C1F89C019B1CB3
S31508004370281EA5F10105E8D101200149086030BDD4
S31508004380A401224200002242680000200C0C0140D1
S3150800439030B504460B4615460020194908601949E8
S315080043A0C1F8A00118480480008818490860002050
S315080043B01349083908600720FFF7CAFD012010498C
S315080043C008390860091D086012E018780E49088047
S315080043D0084600880D490860002009490839086020
S315080043E00720FFF7B5FD01200649C1F89C015B1CB3
S315080043F0281EA5F10105E8D101200149086030BD54
S31508004400A401224200002242680000200C0C014050
S3150800441000B5034600200B4908600B480380008856
S315080044200A49086000200A49C1F89C010720FFF7DD
S315080044308FFD01200349083908600549C1F8A40120
S3150800444000BD0000A4012242680000200C0C0140B7
S315080044500000224200B5034600200B4908600B48BD
S31508004460038000880A49086000200A49C1F89C01AF
S315080044700720FFF76DFD0120034908390860054943
S31508004480C1F8A40100BD0000A40122426800002072
S315080044900C0C01400000224200BFFEE770470000F6
S315080044A070B5002100230F22C47804B3154C246884
S315080044B004F4E064C4F5E064210AC1F10403CA40C7
S315080044C0447804FA03F184781440214309010E4C18
S315080044D00678A155047804F01F050124AC40057838
S315080044E06D11AD0005F1E025C5F8004109E0047835
S315080044F004F01F050124AC40044D0678761145F8F2
S31508004500264070BD0CED00E000E400E080E100E02C
S3150800451002490143024A1160704700000000FA058B
S315080045200CED00E07047000001460020034A506881
S3150800453020F44040084350607047000000100240D5
S3150800454029B1064A52690243044B5A6104E0034AF8
S3150800455052698243014B5A617047000000100240BD
S3150800456029B1064AD2690243044BDA6104E0034AD8
S31508004570D2698243014BDA6170470000001002409D
S3150800458029B1064A92690243044B9A6104E0034A38
S3150800459092698243014B9A617047000000100240FD
S315080045A029B1064AD2680243044BDA6004E0034A9A
S315080045B0D2688243014BDA6070470000001002405F
S315080045C030B500210022002400232D4D6D6805F02A
S315080045D00C0121B1042905D0082923D105E0294D6C
S315080045E0056022E0274D05601FE0254D6D6805F43E
S315080045F07012234D6D6805F48034022505EB92424E
S315080046001CB9214D554305600BE01D4D6D6805F439
S3150800461000351DB11C4D5543056002E0194D554343
S31508004620056002E0174D056000BF00BF144D6D68B8
S3150800463005F0F0010909154D6B5C0568DD4045601C
S315080046400F4D6D6805F4E061090A104D6B5C45680D
S31508004650DD4085600A4D6D6805F46051C90A0B4D49
S315080046606B5C4568DD40C560054D6D6805F44041E5
S31508004670890B074D6B5CC568B5FBF3F5056130BD65
S315080046800010024000127A0000093D00B90000201F
S31508004690C9000020704700002DE9F04104460D4688
S315080046A016461F4607480068C06940B105480068B5
S315080046B03B4632462946D0F81CC02046E047BDE8AE
S315080046C0F08100005400002010B500F001F810BD7C
S315080046D00CB50020019000903348006840F4803003
S315080046E03149086000BF3048006800F40030009087
S315080046F00198401C0190009818B90198B0F5A06F70
S31508004700F1D12948006800F4003010B1012000906A
S3150800471001E0002000900098012843D12348006852
S3150800472040F01000214908600846006820F00300A0
S3150800473008600846006840F0020008601A484068A9
S31508004740194948600846406848600846406840F489
S31508004750806048600846406820F47C104860084637
S31508004760406840F4E81048600846006840F08070E9
S31508004770086000BF0C48006800F000700028F9D0F7
S315080047800948406820F00300074948600846406821
S3150800479040F00200486000BF0348406800F00C0083
S315080047A00828F9D10CBD0000001002400020024084
S315080047B07047000010B5002100200022214B5B68DD
S315080047C003F00C0121B1042906D0082928D107E0F5
S315080047D01D4B1E4C236027E01B4B1C4C236023E01B
S315080047E0184B5B6803F47010164B5B6803F4803251
S315080047F0022303EB904022B9154B4343134C236025
S315080048000DE0104B5B6803F4003323B1104B4343B0
S315080048100E4C236003E00C4B43430C4C236003E02F
S31508004820094B0A4C236000BF00BF064B5B68C3F305
S315080048300313084CE15C054B1B68CB40034C236013
S3150800484010BD00000010024000127A00D0000020BF
S3150800485000093D00D400002010B51348006840F058
S3150800486001001149086008464068104908400E4989
S315080048704860084600680E4908400B490860084623
S31508004880006820F4802008600846406820F4FE008E
S3150800489048604FF41F008860FFF716FF4FF000606E
S315080048A00449086010BD0000001002400000FFF82F
S315080048B0FFFFF6FE08ED00E0F0B50C4615460022AF
S315080048C00021068C4FF6FE773E400684028B018C4B
S315080048D04FF60C7632407E1C06EA03162E43324308
S315080048E0104EB0420ED0104EB0420BD0B0F1804FF1
S315080048F008D00E4EB04205D00D4EB04202D00D4E35
S31508004900B04206D14FF6FD76314044F001063143F8
S3150800491005E04FF6F576314044F00106314302834F
S315080049200184F0BD002C0140003401400004004021
S3150800493000080040000C0040F0B50C461546002261
S3150800494000210026078C4FF6EF7C07EA0C07078440
S31508004950028B018C4FF6FF7707EA041640F6FF47ED
S315080049603A404FF6FF7707EA03373A434FF6FF77A1
S3150800497007EA05273A43114FB8420ED0104FB842FE
S315080049800BD0B0F1804F08D00E4FB84205D00E4F6D
S31508004990B84202D00D4FB84206D14FF6DF773940FC
S315080049A046F01007394305E04FF65F77394044F083
S315080049B01007394302830184F0BD0000002C014032
S315080049C0003401400004004000080040000C00408C
S315080049D0F0B50C461546002200210026078C4FF636
S315080049E0FF6C07EA0C070784828B018C4FF6FF776A
S315080049F007EA04264FF60C773A404FF6FF7707EAA0
S31508004A0003172F433A43114FB8420ED0104FB842FE
S31508004A100BD0B0F1804F08D00E4FB84205D00E4FDC
S31508004A20B84202D00D4FB84206D14FF6FF5739406B
S31508004A3046F48077394305E04FF2FF57394044F48E
S31508004A408077394382830184F0BD0000002C014041
S31508004A50003401400004004000080040000C0040FB
S31508004A60F0B50C461546002200210026078C4EF6A6
S31508004A70FF7C07EA0C070784828B018C4FF6FF77C9
S31508004A8007EA043640F6FF473A404FF6FF7707EA4B
S31508004A9005273A434FF6FF7707EA03373A43114F9C
S31508004AA0B8420ED0104FB8420BD0B0F1804F08D0A4
S31508004AB00E4FB84205D00E4FB84202D00D4FB8423D
S31508004AC006D14DF6FF77394046F48057394305E05D
S31508004AD047F6FF57394044F48057394382830184A7
S31508004AE0F0BD0000002C01400034014000040040E5
S31508004AF000080040000C0040CA430282704721B1FA
S31508004B00028842F00102028004E002884FF6FE7332
S31508004B101A4002807047F0B50C4615461E4600211D
S31508004B20002200230189028B038C4FF6F87739405F
S31508004B3021434FF6FC473A4040F201173A434FF6F5
S31508004B40DD773B404FF6FF7707EA06172F433B43CF
S31508004B50018102830384F0BD818270470146888CF7
S31508004B607047000070B505460C46244885420ED0AD
S31508004B70234885420BD0B5F1804F08D0214885429D
S31508004B8005D02148854202D02048854200D100E060
S31508004B9000BF208850B92389A28861882846FFF774
S31508004BA08BFEE188284600F0B1F825E02088042825
S31508004BB00AD12389A28861882846FFF7BDFEE188C5
S31508004BC0284600F0ACF817E0208808280AD123897F
S31508004BD0A28861882846FFF7FBFEE188284600F090
S31508004BE0ABF809E02389A28861882846FFF738FFD1
S31508004BF0E188284600F0A9F870BD0000002C0140A5
S31508004C00003401400004004000080040000C004049
S31508004C10002101804180012181800021C18001811C
S31508004C207047000070B5002400220023058C4FF65B
S31508004C30EF7635400584028C8388048B48F6FF7529
S31508004C402C404FF6FF452C400D884FF6FF7606EAB6
S31508004C5005252C434FF6DF752A400D8906EA05150A
S31508004C602A434D8806EA05152A43154DA84202D05F
S31508004C70144DA8421DD14FF67F752A404D894FF62F
S31508004C80FF7606EA05152A434FF6BF752A408D8832
S31508004C9006EA05152A434FF6FF352B404FF2FF75F6
S31508004CA02B408D8906EA85052B43CD8906EA8505BD
S31508004CB02B4383800483CD880587028470BD00005A
S31508004CC0002C0140003401400A460021018B4FF2B6
S31508004CD0FF7319404FF6FF7303EA02231943018352
S31508004CE070470021018041808180C1800181418116
S31508004CF08181C181704782884FF68F731A408280FE
S31508004D0082880A438280704781847047028B4FF6F7
S31508004D10F3731A400283028B0A4302837047028B9D
S31508004D204FF2FF331A400283028B4FF6FF7303EAF2
S31508004D3001231A4302837047828B4FF6F3731A4096
S31508004D408283828B0A4382837047828B4FF2FF33BA
S31508004D501A408283828B4FF6FF7303EA01231A43B4
S31508004D6082837047002202881D4B98420ED01D4B45
S31508004D7098420BD0B0F1804F08D01B4B984205D013
S31508004D801A4B984202D01A4B984204D14FF68F73A9
S31508004D901A404B881A43174B984207D0164B98422D
S31508004DA004D04FF6FF431A40CB881A4302808B88FB
S31508004DB083850B8803850A4B98420BD0094B98428A
S31508004DC008D00E4B984205D00D4B984202D00D4B99
S31508004DD0984201D10B7A038601238382704700002B
S31508004DE0002C014000340140000400400008004047
S31508004DF0000C004000100040001400400040014034
S31508004E0000440140004801404FF6FF7181800021AF
S31508004E100180C180418001727047000070B540F280
S31508004E202551134800F054F9C8B1114800F00CFA9E
S31508004E30C5B21048008800F0D1F804460E4800882C
S31508004E40844206D00D480B49098845540948048010
S31508004E5004E00B480088401C0949088000BF082167
S31508004E60034800F028F910B1014800F0EDF970BDCB
S31508004E7000380140B2000020B4000020EE1D0020DA
S31508004E80B600002010B592B00446012144F2050090
S31508004E90FFF776FB01210846FFF752FB4FF4007037
S31508004EA0ADF8440018208DF8470003208DF8460019
S31508004EB011A93748FEF7AEFE4FF48060ADF84400FE
S31508004EC004208DF8470011A93148FEF7A3FE0D947A
S31508004ED00020ADF83800ADF83A00ADF83C00ADF862
S31508004EE040000C20ADF83E000DA92A4800F040F914
S31508004EF02948FEF7ADFB02A8FEF793FC2548001DDE
S31508004F000290264803901020049001200590002066
S31508004F100690802007900020089009900A900B9030
S31508004F200C9002A91C48FEF75CFC01220A211A48CB
S31508004F30FEF74EFC01228021164800F0B3F8012244
S31508004F4040F22551134800F0EDF825208DF80400AD
S31508004F5001208DF805008DF806008DF8070001A8D8
S31508004F60FFF79EFA0E208DF8040002208DF8050042
S31508004F7000208DF8060001208DF8070001A8FFF72C
S31508004F808FFA0121034800F081F812B010BD000025
S31508004F900008014000380140440002406E1E00200F
S31508004FA010B504462CB10A4800880A49098888427F
S31508004FB001D1002010BD084806490988405C2070C8
S31508004FC00448008800F00AF8024908800120F1E741
S31508004FD0B2000020B4000020EE1D0020411C88B25B
S31508004FE0802800DB0020704710B504462146054896
S31508004FF000F02FF900BF8021024800F05CF8002875
S31508005000F9D010BD0038014070B505460C4635B1DB
S315080050102CB1B4F5807F02DC0F48007808B1002077
S3150800502070BD224629460D48FBF7FFFB00210C48B8
S31508005030FEF702FB4FF48050FEF7E2FA21460848D5
S31508005040FEF7EDFB01200449087001210448FEF72C
S31508005050F3FA0120E4E70000B80000206E1E0020E5
S315080050604400024010B5044604B910BD03E0207898
S31508005070FFF7BAFF641C20780028F8D100BFF4E7D0
S315080050800148007870470000B800002021B18289E5
S3150800509042F40052828104E082894DF6FF731A4079
S315080050A0828170471AB1838A0B43838202E0838A1E
S315080050B08B438382704702460020B1F5007F00D1FA
S315080050C000BF13880B400BB1012000E00020704799
S315080050D070B50246002400230025002040F66A1613
S315080050E0B14200D100BFC1F3421501F01F030126EA
S315080050F006FA03F3012D02D19689334006E0022D04
S3150800510002D1168A334001E0968A33400C120126F2
S3150800511006FA04F41688344013B10CB1012000E0F5
S31508005120002070BDF0B503460024002600250020A7
S3150800513040F66A17B94200D100BF1846C1F34214B7
S3150800514001F01F06012707FA06F5012C01D10C30DC
S3150800515004E0022C01D1103000E014301AB10768BF
S315080051602F43076002E00768AF430760F0BD000001
S315080051702DE9F04786B005460E460024A24600BF34
S31508005180A1460027B08900B100BF2F462C8A4CF6ED
S31508005190FF700440F08804432C82AC894EF6F31065
S315080051A00440B08831890843718908430443AC81B7
S315080051B0AC8A4FF6FF400440B0890443AC8201A88C
S315080051C0FFF7FEF91F48874202D1DDF810A001E07B
S315080051D0DDF80CA0A88900F4004040B10AEBCA002B
S315080051E000EB0A1031684900B0FBF1F807E00AEB5A
S315080051F0CA0000EB0A1031688900B0FBF1F8642098
S31508005200B8FBF0F004012009642101FB1089A88984
S3150800521000F4004040B1322000EBC900B0FBF1F0C9
S3150800522000F00700044308E0322000EB091064216F
S31508005230B0FBF1F000F00F0004432C8106B0BDE886
S31508005240F08700000038014001468888C0F308004E
S315080052507047C1F308028280704700BFFEE7303806
S315080052600A2801D2012070470020704710B5102087
S31508005270FEF7EAFF0020FEF75FFE10BD10B501201D
S31508005280FEF75AFE1120FEF7DFFF10BD2DE9F041AB
S31508005290074688461446D4F80260D4F80A50701BAC
S315080052A046082C443620FEF7CFFF6820FFF7D2F8D1
S315080052B02B20FEF7C9FF15490988C1F1EF01C1F393
S315080052C00720FFF7C7F811490988C1F1EF01C8B2ED
S315080052D0FFF7C0F80E490988C1F1EF01C1F30720AD
S315080052E0FFF7B8F80A490988C1F1EF01C8B2FFF714
S315080052F0B1F8324621462C20FFF70AF83620FEF789
S31508005300A3FF2820FFF7A6F8BDE8F0815E0000207D
S315080053105C0000202DE9F04107460C4615461E465E
S315080053202A20FEF791FF2012FFF794F8E0B2FFF764
S3150800533091F8A119491EC1F30720FFF78BF8A119A7
S31508005340491EC8B2FFF786F82B20FEF77DFF281204
S31508005350FFF780F8E8B2FFF77DF82812FFF77AF82A
S31508005360E8B2FFF777F8324639462C20FEF792FF67
S31508005370BDE8F0812DE9F04106460F4614461D4664
S31508005380DDF818802B4622463946304600F01CFACE
S3150800539004FB05F241462C20FEF7BAFFBDE8F08172
S315080053A02DE9F04107460C4615461E462A20FEF70B
S315080053B04BFF2012FFF74EF8E0B2FFF74BF820122A
S315080053C0FFF748F8E0B2FFF745F82B20FEF73CFF59
S315080053D02812FFF73FF8E8B2FFF73CF8A919491E6B
S315080053E0C1F30720FFF736F8A919491EC8B2FFF717
S315080053F031F8324639462C20FEF74CFFBDE8F081DD
S315080054002DE9F04104460D4616461F46DDF818807C
S315080054102A20FEF719FF2012FFF71CF8E0B2FFF763
S3150800542019F8A119491EC1F30720FFF713F8A119A6
S31508005430491EC8B2FFF70EF82B20FEF705FF281203
S31508005440FFF708F8E8B2FFF705F8E919491EC1F3AE
S315080054500720FEF7FFFFE919491EC8B2FEF7FAFF53
S3150800546006FB07F241462C20FEF714FFBDE8F08143
S31508005470F02070474FF4A0707047000010B5012067
S315080054804E4908804E48007800F0010090B94C4813
S31508005490007840F001004A4908700846007800F094
S315080054A0020008B9FEF75AFD4548007840F00200A8
S315080054B0434908700220414908800A20FEF736FD54
S315080054C00120FEF7C1FE7820FEF730FD0A20FEF720
S315080054D02DFD03223BA1EF20FEF75AFF03223AA136
S315080054E0CF20FEF755FF042238A1ED20FEF750FF26
S315080054F0032238A1E820FEF74BFF052236A1CB2070
S31508005500FEF746FF012236A1F720FEF741FF0222E9
